:1000000000000020F5040000E32D0000E92D0000B1
:10001000EF2D0000F52D0000FB2D0000000000007A
:100020000000000000000000000000006505000066
:10003000012E0000000000000B0600006B0600000F
:10004000712C00007F2C00008D2C00009B2C0000E8
:10005000A92C0000B72C0000C52C0000D32C0000F8
:10006000E12C0000EF2C0000FD2C00000B2D000007
:10007000192D0000272D0000352D0000432D000014
:10008000512D0000072E00000D2E0000132E000041
:10009000192E00001F2E0000252E00002B2E000020
:1000A000312E0000372E00003D2E0000432E0000B0
:1000B000492E00004F2E0000552E00005F2D00003D
:1000C0005B2E00006D2D0000612E00007B2D0000D6
:1000D000672E0000892D00006D2E0000732E000099
:1000E000792E00007F2E0000852E00008B2E000050
:1000F000912E0000972E00009D2E0000A32E0000E0
:1001000005050000050500000505000005050000C7
:10011000A92E0000AF2E0000B52E0000BB2E00005F
:10012000C12E0000C72E0000CD2E0000D32E0000EF
:10013000D92E0000DF2E0000E52E0000EB2E00007F
:10014000F12E0000F72E0000972D0000FD2E00007C
:10015000A52D0000032F0000092F00000F2F000025
:10016000152F00001B2F0000212F0000272F00005B
:100170002D2F0000332F0000392F00003F2F0000EB
:10018000452F0000050500000505000005050000DD
:100190000505000005050000050500000505000037
:1001A0000505000005050000050500000505000027
:1001B0000505000005050000050500000505000017
:1001C0000505000005050000050500000505000007
:1003F000050500000505000005050000FFFFFFFFE3
:10040000FFFFFFFFFFFFFFFFFFFFFFFFFEFFFFFFFD
:1004400010B5054C237833B9044B13B10448AFF30E
:1004500000800123237010BD780E002000000000F2
:1004600044AE000008B5034B1BB103490348AFF38A
:10047000008008BD000000007C0E002044AE00009B
:10048000154B002B08BF134B9D46A3F5803A002166
:100490008B460F461348144A121A07F079FC0F4B8B
:1004A000002B00D098470E4B002B00D0984700201F
:1004B000002104000D000D48002802D00C4807F070
:1004C00045F907F08DF92000290002F0ADFB07F097
:1004D00049F900BF000008000000002000000000F3
:1004E00059290000780E0020CC4000204D770000F4
:1004F0008577000072B603F013FE03F0ABFD62B621
:10050000FFF7BEFFFFF7FEBF80F309887047EFF3E8
:1005100009807047684680F309885A480078C00708
:1005200014BF0220032080F314887047DFF858C1FD
:10053000EFF305831B0618BF6047EFF31483DB0757
:1005400008BF604700DF7047DFF840C1EFF3058365
:100550001B0618BF6047EFF31483DB0708BF604733
:1005600000DF7047EFF30980816911F8021CE1BBDD
:1005700090E80F1010B5E047BDE81040EFF3098C8C
:100580008CE80700424B93E80600914208BF704791
:1005900041B91EF0100F16D13E49086820F0010045
:1005A000086010E01EF0100F06BF2CED108A01202D
:1005B000002081F825002CE9F00FC1F828C00CB408
:1005C00005F08CF90CBC1A60D2F828C0BCE8F00F1A
:1005D00092F8250000280EBF6FF0020E6FF0120E89
:1005E000BCEC108A8CF30988704710B52A4A12684F
:1005F000914209D8294C54F8214090E80F10A047A7
:10060000EFF3098C8CE80F0010BD10B505F0EAF887
:10061000BDE810401E4B93E80600914208BF7047AA
:10062000EFF3098C1EF0100F06BF2CED108A01208D
:10063000002081F825002CE9F00FC1F828C00CB487
:1006400005F04CF90CBC1A60D2F828C0BCE8F00FD9
:1006500092F8250000280EBF6FF0020E6FF0120E08
:10066000BCEC108A8CF30988704710B505F018F9B6
:10067000FFF7CEBF10B505F011F905F011F9FFF73E
:10068000C7BF000020A20000695100008551000092
:100690006840002034EF00E000000000FCFFFFFF96
:1006A00081F0004102E000BF83F0004330B54FEA23
:1006B00041044FEA430594EA050F08BF90EA020F90
:1006C0001FBF54EA000C55EA020C7FEA645C7FEA23
:1006D000655C00F0E2804FEA5454D4EB5555B8BF46
:1006E0006D420CDD2C4480EA020281EA030382EAB7
:1006F000000083EA010180EA020281EA0303362D49
:1007000088BF30BD11F0004F4FEA01314FF4801C1B
:100710004CEA113102D0404261EB410113F0004F2D
:100720004FEA03334CEA133302D0524263EB4303E4
:1007300094EA050F00F0A780A4F10104D5F1200E82
:100740000DDB02FA0EFC22FA05F2801841F10001DD
:1007500003FA0EF2801843FA05F359410EE0A5F1B1
:1007600020050EF1200E012A03FA0EFC28BF4CF0E2
:10077000020C43FA05F3C01851EBE37101F0004598
:1007800007D54FF0000EDCF1000C7EEB00006EEBA5
:100790000101B1F5801F1BD3B1F5001F0CD349082F
:1007A0005FEA30004FEA3C0C04F101044FEA445286
:1007B00012F5800F80F09A80BCF1004F08BF5FEA0D
:1007C000500C50F1000041EB045141EA050130BDED
:1007D0005FEA4C0C404141EB010111F4801FA4F190
:1007E0000104E9D191F0000F04BF01460020B1FAE5
:1007F00081F308BF2033A3F10B03B3F120020CDA1D
:100800000C3208DD02F1140CC2F10C0201FA0CF0FA
:1008100021FA02F10CE002F11402D8BFC2F1200C5F
:1008200001FA02F120FA0CFCDCBF41EA0C01904015
:10083000E41AA2BF01EB0451294330BD6FEA04045E
:100840001F3C1CDA0C340EDC04F11404C4F1200249
:1008500020FA04F001FA02F340EA030021FA04F35B
:1008600045EA030130BDC4F10C04C4F1200220FAB2
:1008700002F001FA04F340EA0300294630BD21FAF0
:1008800004F0294630BD94F0000F83F4801306BFB6
:1008900081F480110134013D4EE77FEA645C18BFAA
:1008A0007FEA655C29D094EA050F08BF90EA020F41
:1008B00005D054EA000C04BF1946104630BD91EA39
:1008C000030F1EBF0021002030BD5FEA545C05D13C
:1008D0004000494128BF41F0004130BD14F580047B
:1008E0003CBF01F5801130BD01F0004545F0FE41EF
:1008F00041F470014FF0000030BD7FEA645C1ABF24
:10090000194610467FEA655C1CBF0B46024650EA5A
:10091000013406BF52EA033591EA030F41F4002186
:1009200030BD00BF90F0000F04BF0021704730B50C
:100930004FF4806404F132044FF000054FF00001E1
:1009400050E700BF90F0000F04BF0021704730B5A2
:100950004FF4806404F1320410F0004548BF404277
:100960004FF000013EE700BF42004FEAE2014FEACC
:1009700031014FEA02701FBF12F07F4393F07F4FA7
:1009800081F06051704732F07F4208BF704793F0AA
:100990007F4F04BF41F40021704730B54FF46074BD
:1009A00001F0004521F000411CE700BF50EA0102C0
:1009B00008BF704730B54FF000050AE050EA010269
:1009C00008BF704730B511F0004502D5404261EBD9
:1009D00041014FF4806404F132045FEA915C3FF41A
:1009E000D8AE4FF003025FEADC0C18BF03325FEAB7
:1009F000DC0C18BF033202EBDC02C2F1200300FA68
:100A000003FC20FA02F001FA03FE40EA0E0021FA8C
:100A100002F11444BDE600BF70B54FF0FF0C4CF47A
:100A2000E06C1CEA11541DBF1CEA135594EA0C0F2C
:100A300095EA0C0F00F0DEF82C4481EA030621EA67
:100A40004C5123EA4C5350EA013518BF52EA0335A2
:100A500041F4801143F4801338D0A0FB02CE4FF054
:100A60000005E1FB02E506F00042E0FB03E54FF084
:100A70000006E1FB03569CF0000F18BF4EF0010E7C
:100A8000A4F1FF04B6F5007F64F5407404D25FEA78
:100A90004E0E6D4146EB060642EAC62141EA55512B
:100AA0004FEAC52040EA5E504FEACE2EB4F1FD0C6D
:100AB00088BFBCF5E06F1ED8BEF1004F08BF5FEAEB
:100AC000500E50F1000041EB045170BD06F000469D
:100AD00046EA010140EA020081EA0301B4EB5C044A
:100AE000C2BFD4EB0C0541EA045170BD41F4801142
:100AF0004FF0000E013C00F3AB8014F1360FDEBF67
:100B0000002001F0004170BDC4F10004203C35DA42
:100B10000C341BDC04F11404C4F1200500FA05F3C5
:100B200020FA04F001FA05F240EA020001F0004266
:100B300021F0004110EBD37021FA04F642EB0601DC
:100B40005EEA430E08BF20EAD37070BDC4F10C0406
:100B5000C4F1200500FA04F320FA05F001FA04F2CA
:100B600040EA020001F0004110EBD37041F10001B6
:100B70005EEA430E08BF20EAD37070BDC4F12005C1
:100B800000FA05F24EEA020E20FA04F301FA05F229
:100B900043EA020321FA04F001F0004121FA04F2D1
:100BA00020EA020000EBD3705EEA430E08BF20EAA1
:100BB000D37070BD94F0000F0FD101F000464000DB
:100BC00041EB010111F4801F08BF013CF7D041EA5D
:100BD000060195F0000F18BF704703F00046520061
:100BE00043EB030313F4801F08BF013DF7D043EA32
:100BF0000603704794EA0C0F0CEA135518BF95EAE8
:100C00000C0F0CD050EA410618BF52EA4306D1D16E
:100C100081EA030101F000414FF0000070BD50EA8D
:100C2000410606BF1046194652EA430619D094EA17
:100C30000C0F02D150EA013613D195EA0C0F05D101
:100C400052EA03361CBF104619460AD181EA030155
:100C500001F0004141F0FE4141F470014FF000000D
:100C600070BD41F0FE4141F4780170BD70B54FF0A8
:100C7000FF0C4CF4E06C1CEA11541DBF1CEA135528
:100C800094EA0C0F95EA0C0F00F0A7F8A4EB05040A
:100C900081EA030E52EA03354FEA013100F0888001
:100CA0004FEA03334FF0805545EA131343EA1263CA
:100CB0004FEA022245EA111545EA10654FEA00267F
:100CC0000EF000419D4208BF964244F1FD0404F538
:100CD000407402D25B084FEA3202B61A65EB030594
:100CE0005B084FEA32024FF480104FF4002CB6EB51
:100CF000020E75EB030E22BFB61A754640EA0C00D1
:100D00005B084FEA3202B6EB020E75EB030E22BF10
:100D1000B61A754640EA5C005B084FEA3202B6EB51
:100D2000020E75EB030E22BFB61A754640EA9C0010
:100D30005B084FEA3202B6EB020E75EB030E22BFE0
:100D4000B61A754640EADC0055EA060E18D04FEA9E
:100D5000051545EA16754FEA06164FEAC30343EA3E
:100D600052734FEAC2025FEA1C1CC0D111F4801F0B
:100D70000BD141EA00014FF000004FF0004CB6E704
:100D800011F4801F04BF01430020B4F1FD0C88BFA3
:100D9000BCF5E06F3FF6AFAEB5EB030C04BFB6EBAE
:100DA000020C5FEA500C50F1000041EB045170BDA1
:100DB0000EF0004E4EEA113114EB5C04C2BFD4EBCE
:100DC0000C0541EA045170BD41F480114FF0000E52
:100DD000013C90E645EA060E8DE60CEA135594EACE
:100DE0000C0F08BF95EA0C0F3FF43BAF94EA0C0FD1
:100DF0000AD150EA01347FF434AF95EA0C0F7FF446
:100E000025AF104619462CE795EA0C0F06D152EA99
:100E100003353FF4FDAE1046194622E750EA41067D
:100E200018BF52EA43067FF4C5AE50EA41047FF48E
:100E30000DAF52EA43057FF4EBAE12E74FF0FF3CF3
:100E400006E000BF4FF0010C02E000BF4FF0010CC4
:100E50004DF804CD4FEA410C7FEA6C5C4FEA430C3D
:100E600018BF7FEA6C5C1BD001B050EA410C0CBF8C
:100E700052EA430C91EA030F02BF90EA020F0020EE
:100E8000704710F1000F91EA030F58BF994208BF55
:100E900090422CBFD8176FEAE37040F00100704712
:100EA0004FEA410C7FEA6C5C02D150EA013C07D169
:100EB0004FEA430C7FEA6C5CD6D152EA033CD3D0B4
:100EC0005DF8040B704700BF8446104662468C46AE
:100ED0001946634600E000BF01B5FFF7B7FF0028E1
:100EE00048BF10F1000F01BD4DF808EDFFF7F4FF0A
:100EF0000CBF012000205DF808FB00BF4DF808ED95
:100F0000FFF7EAFF34BF012000205DF808FB00BFB7
:100F10004DF808EDFFF7E0FF94BF012000205DF8D9
:100F200008FB00BF4DF808EDFFF7CEFF94BF01208E
:100F300000205DF808FB00BF4DF808EDFFF7C4FF87
:100F400034BF012000205DF808FB00BF4A0011D229
:100F500012F5001211D20DD56FF47873B3EB625213
:100F60000ED44FEAC12343F0004343EA505323FA1F
:100F700002F070474FF00000704750EA013002D194
:100F80004FF0FF3070474FF00000704753B94AB937
:100F9000002908BF00281CBF4FF0FF314FF0FF3081
:100FA00001F0F8B8ADF1080C6DE904CE00F006F8D8
:100FB000DDF804E0DDE9022304B070472DE9F047D5
:100FC000089E04468846002B4BD18A42154667D9B5
:100FD000B2FA82F24AB1C2F1200701FA02F320FA12
:100FE00007F7954047EA030894404FEA154E230C53
:100FF000B8FBFEF71FFA85FC0EFB178843EA08438F
:1010000007FB0CF1994209D9EB1807F1FF3080F08A
:101010001B81994240F21881023F2B445B1AA4B213
:10102000B3FBFEF00EFB103344EA034400FB0CFC60
:10103000A44509D92C1900F1FF3380F00781A4459C
:1010400040F2048102382C4440EA0740A4EB0C042F
:1010500000271EB1D4400023C6E900433946BDE84D
:10106000F0878B4209D9002E00F0EB800027C6E9FB
:10107000000138463946BDE8F087B3FA83F7002F00
:1010800047D18B4202D3824200F2FA80841A61EB8C
:10109000030301209846002EE0D0C6E90048DDE7B2
:1010A00002B9FFDEB2FA82F2002A40F08F80491BBB
:1010B0004FEA154E1FFA85F80127B1FBFEFC230C01
:1010C0000EFB1C1143EA014308FB0CF1994207D9BE
:1010D000EB180CF1FF3002D2994200F2CD80844629
:1010E000591AA3B2B1FBFEF00EFB101443EA0444FC
:1010F00008FB00F8A04507D92C1900F1FF3302D2F4
:10110000A04500F2B6801846A4EB080440EA0C4063
:101110009FE7C7F1200CBB4022FA0CFE4EEA030EFB
:1011200001FA07F420FA0CF521FA0CF34FEA1E48F5
:101130002543B3FBF8F92C0C08FB19331FFA8EFA80
:1011400044EA034309FB0AF49C4202FA07F200FA5C
:1011500007F10BD91EEB030309F1FF3080F0878004
:101160009C4240F28480A9F1020973441B1BADB27A
:10117000B3FBF8F008FB103345EA034400FB0AFA1E
:10118000A24508D91EEB040400F1FF336BD2A2453F
:1011900069D90238744440EA0940A0FB0289A4EBF3
:1011A0000A044C45C2464B4654D351D0002E69D058
:1011B000B1EB0A0564EB030404FA0CFCFD40FC40AF
:1011C0004CEA0505C6E90054002747E7C2F12003B1
:1011D00020FA03F7954001FA02F021FA03F34FEAEF
:1011E000154E3843010CB3FBFEF71FFA85F80EFBD2
:1011F000173341EA034107FB08F38B4204FA02F478
:1012000007D9691807F1FF3C2FD28B422DD9023F35
:101210002944CB1A81B2B3FBFEF00EFB103341EA36
:10122000034100FB08F38B4207D9691800F1FF3C2A
:1012300017D28B4215D902382944C91A40EA074708
:101240003BE73746304609E70746E7E61846FBE640
:101250004145ABD2B8EB020A69EB0E0201381346E6
:10126000A4E76046E9E7184695E76746D1E7814677
:101270007CE702382C4447E7ACF1020C2B442FE703
:10128000384608E73746E9E603685A004CBF43F0A2
:10129000004323F000431844704700BF61B32DE9B9
:1012A000F84F01F1FF3A90460646D146002707EB7A
:1012B000090404EBD4746410E50071190846FFF7C3
:1012C000E3FFA245834605F10800304409D0FFF74B
:1012D000DBFFC34500F1FF3005D8404509D2671C4C
:1012E000E5E7C34505D9A74202D004F1FF39DEE79F
:1012F00000210846BDE8F88F08467047012807D04E
:10130000022807D0044B00280CBF18460020704765
:101310000248704702487047E9190000ED190000C3
:10132000F119000030B5254B83B004468D1E4BB338
:1013300001A92846AFF30080F0B101992A46FFF7D2
:10134000ADFF0146C0B1FFF79FFF4B68A064012BC2
:101350002ED0002B01F1040026DBFFF795FF0023C0
:10136000C4E913030368002B12DBFFF78DFF002392
:101370002061184603B030BD0023236109231846BD
:1013800003B030BD0E490F48091AC9100191D5E7C5
:10139000C3F30360FFF7B2FF002814BF0023092343
:1013A0002061184603B030BD0123C4E91303D9E717
:1013B000002323610523184603B030BD0000000060
:1013C00070B2000030B000000368DA0710B50446C0
:1013D00006D49B0700F1480009D500F05FFC2368A4
:1013E000590709D51A070ED5DB0613D510BD00F035
:1013F0004DFC23685907F5D404F1D00000F056FCE9
:1014000023681A07F0D404F5A87000F057FC23688D
:10141000DB06EBD404F5E870BDE8104000F092BCA8
:10142000036803B103441846704700BF09207047A2
:10143000704700BF70B504460D4608E02B6C636131
:101440002A462369214601209847082808D1296C9B
:101450002046FFF767FF06460028EFD006F050F958
:101460000728FBD13046296CFFF7E2FF281D00F06A
:1014700001FC00BF2DE9F0470C1D054617460FCCB7
:10148000ADF5727D03AE0FC60FCC0FC60FCC0FC6E5
:1014900094E80F0002ACD5F80C80D5F8189086E8D7
:1014A0000F000023236021E0236C6B614FF4F07286
:1014B00021467AA800F070FE2B697AAA29463046A8
:1014C0009847889BCDE900498246636431462B46A4
:1014D0002A460120C0470746F8B94FF4F0727AA9AE
:1014E000204600F059FEBAF1080F1CD1216C2846A5
:1014F000FFF718FF002F08BF0926074618BF0A2666
:101500000028D1D0A36B46F01001CDE900492A464E
:10151000636401202B46C04700B1092738460DF50A
:10152000727DBDE8F087BAF1070FF6D13846216C1D
:10153000FFF77EFF03A800F09DFB00BF406C7047E3
:10154000F0B5CB6B0B640D1D0F4606460FCDF9B001
:1015500001AC0FC40FCD0FC40FCD0FC495E80F0021
:101560004FF0FF3584E80F00009506E033696A46C6
:10157000314698470828044608D110993046FFF7AD
:10158000D1FE0028F2D0092079B0F0BD6846FFF7FF
:101590001BFF062CF7D139463046FFF74BFF00BF43
:1015A00030B4DD6BC160826119461D64002230BC1D
:1015B00060E700BF70B5C66843690B64BEB90369D4
:1015C0000A4604460D46014602209847072807D0E0
:1015D000082803D129462046FFF72CFF06F090F893
:1015E0003046296CFFF724FF281D00F043FB012241
:1015F000FFF740FF06F084F8C2681AB1CA6B0A64AC
:10160000002237E79CE700BF704700BF836813B133
:101610000146012018477047042907D8DFE801F088
:101620000308060808000BB90F2A03D902207047E7
:101630000120704700EB820218465368009A13603D
:10164000704700BF10B584B0002303AC0A46009475
:101650001946FFF7E1FF039804B010BD042907D82D
:10166000DFE801F00308060808000BB90F2A03D9C8
:10167000022070470120704700EB8200009A126838
:1016800042601846704700BF10B584B004AC002318
:1016900044F8042D0A4600941946FFF7DFFF04B012
:1016A00010BD00BFF0B5D36B1364151D07460E4681
:1016B0000FCDADF50F7D17AC0FC40FCD0FC40FCDFF
:1016C0000FC495E80F004FF0FF3584E80F00169522
:1016D00010E016A8FFF7D8FF314616A8B84716AA9B
:1016E000694678B9049B08209847052804460AD023
:1016F000092807D026996846FFF714FE6A460C2190
:101700000028E6D0092416A8FFF75EFE20460DF556
:101710000F7DF0BD2DE9F04F0D46C96C89B00C1D51
:10172000164600F0030B0A6806941F46002B68D08B
:10173000130CD9B212048DF81D30022304EB81047E
:1017400005928DF81C302B6DBBF1020F08BFAC6BFE
:1017500013F0010346D1019300F008030093D4F87D
:101760000090B9F1000F00F0F380022F45D0B4F8DB
:101770000090B4F802800434AB6C28F0010A0F2109
:1017800030469A44FFF75EFF824534D829F00103C2
:101790005344834294BF002001204FEA480808F0D8
:1017A000020809F0010948EA0908B8F1010F3AD026
:1017B00031D3B8F1020F1AD1236823F0004ABBF1EC
:1017C000000F66D130B1009A002A6CD0BAF1000F38
:1017D00000F09080002B00DA04340AF1010304EBDE
:1017E0008304BCE7304605A900F046FB78B1092028
:1017F00009B0BDE8F08F0020CFE7D4F804800834AA
:10180000BAE7120203230592ADF81C309BE70820CB
:1018100009B0BDE8F08FBBF1000F02D0002840F006
:10182000B48004349BE7BBF1000F18D1A8B1D4E910
:101830000023991C4FEAD272D9D005F15801013327
:10184000049100F0B580201DFFF7EAFD04AB0146CE
:101850002846AFF30080002867D108347FE70D21C8
:101860003046D5F82080FFF7EDFE8045F5D1AB6A14
:101870009C42F2D12046FFF707FD0F210246304679
:10188000FFF702FF30462A460021FFF7FDFE072042
:10189000AEE70D213046D5F82080FFF7D3FE804516
:1018A00032D0236896E7BAF1000F23D005F1580330
:1018B00004F10408CDF808B0DDF800900397A346C2
:1018C0001C4602E05745B94640D040460494FFF715
:1018D000A7FD04AB014600222846AFF3008009F1C2
:1018E000010708F104080028ECD0D1455C46DDE989
:1018F00002B7D6D130460D21FFF7A4FE049B286223
:10190000C5E90934062073E7AB6A9C42C9D10422B9
:101910004FF00008A318C5E90AA8C5E90C232368FD
:1019200043454DDB0123019357E780460D213046A7
:10193000FFF788FEB8F1020F28623ED12B46049AC9
:1019400043F82C2F6B62AC62062051E75C46D1E76E
:1019500005A9304600F090FA00287FF448AF019BBB
:10196000002B3FF454AF0F213046FFF76BFE0E21E2
:1019700002463046FFF788FE30461A4A0F21FFF72D
:1019800083FE072009B0BDE8F08F2046FFF77CFCFE
:1019900004340746AC632846AFF3008000283FF4C8
:1019A00026AF30463A460F21FFF76EFE07201FE7AD
:1019B00030460D21FFF746FE2862049B6B62C2E7AA
:1019C0000AF1010004EB8000FFF75EFC0F210246E4
:1019D0003046FFF759FE30462A464146FFF754FE8F
:1019E000072005E700000000002393E6012391E6AD
:1019F00002238FE62DE9F0410546C4B0042906D83C
:101A0000DFE801F04D2B05030900032B5FD0022016
:101A100044B0BDE8F081002BF9D1102AF7D82B682B
:101A2000DC0600F1F48022AC2046019200F094F92B
:101A3000A86B019A0023012606FA03F1114203D094
:101A4000016844F8231004300133042BF4D1A86357
:101A5000204600F077F90020DAE7012B4FEA124622
:101A600097B252D0052BD2D106EB0708B8F1200F60
:101A7000CDD80F2E40F29980B846002F40F0DB8081
:101A8000AA6BAA630F2E40F2BE80B8F1000F02D0FD
:101A900002A800F00BF9002044B0BDE8F081002B53
:101AA000B5D1AC6B97B2281D012606FA03F1394275
:101AB00003F1010302D0216801600434102B00F10E
:101AC0000400F2D112F40050E5D1AC63A0E7160C8B
:101AD00097B2F319102B9AD82B681A075DD422AC51
:101AE000204600F00DF904EBC601AB6B3FB103EBF0
:101AF000C702186841F8040B04339342F9D1204619
:101B0000AB6300F0DBF8002082E7F219102A3FF601
:101B10007EAF0F2E3FF67BAF2A68D10708D5284647
:101B200022F0030240F8482B019300F0B3F8019B28
:101B3000019322AC204600F0ADF8A96B019B002F69
:101B400000F095807F0004EBC6044FF00008043CD1
:101B500001EB870251F8040B44F8040F9142F9D1CC
:101B6000B8F1000F0FD002AC102E314638BF102153
:101B700004EBC101843902EBC80452F8040B41F8AC
:101B8000040F9442F9D1012B7FF47BAF22AC0432D5
:101B9000AA63204600F07AF87DE723F008032B6063
:101BA00005F5A87000F0ACF899E7B8F1100F2A68B5
:101BB00043D9D007A8F110080BD5284622F001021E
:101BC00042F0020240F8482B019300F06BF82A68BB
:101BD000019B510725D40F2E04D822A8019300F0B1
:101BE00061F8019B019302AC204600F063F8C6F156
:101BF00010010029AA6B019BB6DD22AC4F0004EB5B
:101C0000C6041146A3E722A800F048F83DE723F0F8
:101C100010032B6005F5E870019200F09DF8019A21
:101C200001E7284622F0040240F8D02B019300F08F
:101C300041F8019BCFE72A68CBE7D0070AD52846B1
:101C400022F0010242F0020240F8482B019300F01A
:101C500029F8019B019322AC204600F023F8B846F6
:101C6000A96B019B002F7FF46DAF0A4609E70A4676
:101C70008DE700BF00F1340191E838009C46A6468C
:101C80004CF8045D90E8FF0FE54600BD90EC210B99
:101C9000704700BF80EC210B704700BF90EC200B19
:101CA000704700BF80EC200B704700BFD0EC200BCA
:101CB000704700BFC0EC200B704700BFF0EC020182
:101CC000F0EC0211F0EC0221F0EC0231F0EC0241F8
:101CD000F0EC0251F0EC0261F0EC0271F0EC0281E8
:101CE000F0EC0291F0EC02A1F0EC02B1F0EC02C1D8
:101CF000F0EC02D1F0EC02E1F0EC02F1704700BF31
:101D0000E0EC0201E0EC0211E0EC0221E0EC023137
:101D1000E0EC0241E0EC0251E0EC0261E0EC027127
:101D2000E0EC0281E0EC0291E0EC02A1E0EC02B117
:101D3000E0EC02C1E0EC02D1E0EC02E1E0EC02F107
:101D4000704700BFB0FC0181B0FC0191B0FC01A163
:101D5000B0FC01B1704700BFA0FC0181A0FC019163
:101D6000A0FC01A1A0FC01B1704700BFEC4600B58A
:101D70002DE900502DE9FF1F4FF000032DE90C0065
:101D800001A9FFF7DDFBDDF840E012B0704700BFAE
:101D9000EC4600B52DE900502DE9FF1F4FF0000380
:101DA0002DE90C0001A9FFF705FCDDF840E012B0B9
:101DB000704700BFEC4600B52DE900502DE9FF1F2C
:101DC0004FF000032DE90C0001A9FFF715FCDDF829
:101DD00040E012B0704700BFEC4600B52DE900505E
:101DE0002DE9FF1F4FF000032DE90C0001ABFFF7B9
:101DF000D7FBDDF840E012B0704700BFEC4600B5FD
:101E00002DE900502DE9FF1F4FF000032DE90C00D4
:101E100001AAFFF747FCDDF840E012B0704700BFB1
:101E2000027A82B9437AABB14268013B10B4437283
:101E300013680321141D01721A02446002605DF8E8
:101E4000044B180E70470368013A02721A020260CE
:101E5000180E7047B020704700B585B003AA002364
:101E6000009219460C22FFF7D7FB039805B05DF8E6
:101E700004FB00BFF0E700BF2DE9F043054685B045
:101E80000E464FF000083046FFF7CAFFB028044660
:101E900000F0B180070620D500F0F003802B65D05C
:101EA000902B36D0A02B78D0B02B47D0C02B00F091
:101EB0008A8000F0F803D02B0BD100F0070201322A
:101EC00042F40022052301212846FFF793FD002854
:101ED000D9D0092005B0BDE8F0830DF10C0900232D
:101EE00019468700CDF800900D222846FFF794FB95
:101EF000FFB2039BCDF80090043760064CBFDF1B98
:101F0000FF18002319460D2228460397FFF7A6FB6A
:101F1000B9E700F00D030D2BDBD003AF002300F079
:101F20000F02194600972846FFF776FB002300971B
:101F300019460D222846FFF791FBA4E7B1285FD090
:101F4000B22800F0CC80B3287ED000F0FC03B42B84
:101F5000BFD000F007020132012342F400221946EB
:101F60002846FFF747FD00288DD0B2E73046FFF73F
:101F700057FF24020443B4F5004FAAD024010023E4
:101F8000A2B219462846FFF735FD0028A1D114F466
:101F9000004F18BF4FF0010875E7C24302F0070376
:101FA0004FF47F621A41010702F47F624FF0000391
:101FB00048BF42F4804219462846FFF71BFD00281F
:101FC0003FF461AF85E7C62851D0C7285AD000F04A
:101FD000F803C02B69D0C82875D0C9287FF479AF21
:101FE0003046FFF71DFF020300F00F0002F47022DD
:101FF0000130024366E7B8F1000F14D0002069E712
:102000003046FFF70DFF00283FF463AF10F0F003F8
:102010007FF45FAF024619462846FFF7EBFC002825
:102020003FF431AF55E703AC43460E2241460094DE
:102030002846FFF7F1FA0094284643460F2241460E
:10204000FFF70CFB404645E73046FFF7E9FE01038A
:1020500000F00F0001F47021421C01230A432846BE
:102060001946FFF7C7FC00283FF40DAF31E73046B3
:10207000FFF7D6FE010300F00F0001F47021421CAF
:102080000323EBE73046FFF7CBFE024600283FF480
:1020900020AF10F0F0037FF41CAF04212846FFF7B7
:1020A000A9FC00283FF4EFAE13E700F00F02013265
:1020B000032342F4202219462846FFF79BFC002800
:1020C0003FF4E1AE05E73046FFF7AAFE00F0F0026C
:1020D00000F00F031032013343EA0232F2E600232C
:1020E0000DF10C090D221946CDF800902846FFF796
:1020F00093FA3046FFF794FE02064FF002070CD524
:10210000039B00F07F00B840034430460393FFF781
:1021100087FE030607F10707F2D4039BCDF8009072
:1021200000F07F0403F50172BC40002314441946FB
:102130000D2228460394FFF791FAA4E610B5C36C6C
:1021400084B05A6803208DF80C00DC798DF80D40BE
:1021500012020833084601A901920293FFF78CFE90
:1021600004B010BD08B5FFF785FE806C08BD00BF48
:1021700008B5FFF77FFEC06CC37900EB8300083021
:1021800008BD00BF08B505F0BBFA00BF08B5FFF7F2
:10219000F9FF00BF704700BF844641EA000313F017
:1021A00003036DD1403A41D351F8043B40F8043B5E
:1021B00051F8043B40F8043B51F8043B40F8043B21
:1021C00051F8043B40F8043B51F8043B40F8043B11
:1021D00051F8043B40F8043B51F8043B40F8043B01
:1021E00051F8043B40F8043B51F8043B40F8043BF1
:1021F00051F8043B40F8043B51F8043B40F8043BE1
:1022000051F8043B40F8043B51F8043B40F8043BD0
:1022100051F8043B40F8043B51F8043B40F8043BC0
:1022200051F8043B40F8043B403ABDD2303211D360
:1022300051F8043B40F8043B51F8043B40F8043BA0
:1022400051F8043B40F8043B51F8043B40F8043B90
:10225000103AEDD20C3205D351F8043B40F8043B60
:10226000043AF9D2043208D0D2071CBF11F8013B5E
:1022700000F8013B01D30B8803806046704700BF24
:10228000082A13D38B078DD010F003038AD0C3F133
:102290000403D21ADB071CBF11F8013B00F8013B15
:1022A00080D331F8023B20F8023B7BE7043AD9D3D4
:1022B000013A11F8013B00F8013BF9D20B780370A9
:1022C0004B7843708B788370604670470000000045
:1022D00001F0FF01102A2BDB10F0070F08D010F8D7
:1022E000013B013A8B422DD010F0070F42B3F6D1DB
:1022F000F0B441EA012141EA014122F007047FF0F4
:1023000000070023F0E80256083C85EA010586EA4A
:10231000010685FA47F5A3FA87F586FA47F6A5FA86
:1023200087F68EB9EED1F0BC01F0FF0102F0070292
:1023300032B110F8013B013A83EA010313B1F8D13D
:102340000020704701387047002D06BF354603381E
:10235000073815F0010F07D1013015F4807F02BF57
:10236000013015F4C03F0130F0BC0138704700BFA8
:10237000000000000000000000000000000000005D
:1023800090F800F06DE9024520F007016FF0000CB5
:1023900010F0070491F820F040F049804FF000045D
:1023A0006FF00700D1E9002391F840F000F1080038
:1023B00082FA4CF2A4FA8CF283FA4CF3A2FA8CF370
:1023C0004BBBD1E9022382FA4CF200F10800A4FAD7
:1023D0008CF283FA4CF3A2FA8CF3E3B9D1E904232B
:1023E00082FA4CF200F10800A4FA8CF283FA4CF362
:1023F000A2FA8CF37BB9D1E9062301F1200182FA1C
:102400004CF200F10800A4FA8CF283FA4CF3A2FA21
:102410008CF3002BC6D0002A04BF04301A4612BA2F
:10242000B2FA82F2FDE8024500EBD2007047D1E932
:10243000002304F00305C4F100004FEAC50514F0C1
:10244000040F91F840F00CFA05F562EA05021CBF92
:1024500063EA050362464FF00004A9E780B584B043
:1024600000AFF860B9601346FB71BB681F2B05D93C
:102470000D4B0E4AFF210E4805F04AF9FB68BA6879
:1024800053F8223023F0807323F4E063FA791202C8
:1024900002F4E06243EA0201FB68BA6843F82210E2
:1024A00000BF1037BD4680BD4CA1000000A2000057
:1024B00058A1000080B483B000AF78600B46FB7079
:1024C0007B681B6823F01802FB78DB0003F018031D
:1024D0001A437B681A6000BF0C37BD465DF8047B69
:1024E0007047000090B58FB000AF786187ED020BA8
:1024F00087ED001B524A7B695B01134411331B7843
:10250000002B40F08780002387F82830002387F8CD
:102510002930002387F82A308023FB62484A7B69F0
:102520005B0113441868464A7B695B01134404331A
:102530001968434A7B695B01134410331B781A46C0
:10254000FFF78CFF3E4A7B695B01134408331B682D
:1025500007F128021146184603F0E4FF384A7B6968
:102560005B01134408331B68DBB2002201211846CB
:1025700004F05CF8324A7B695B0113441133042296
:102580001A702F4A7B695B01134403F11802D7E9E3
:102590000234C2E9003402233B7600237B76284ACA
:1025A0007B695B0113441833D3E900341846214694
:1025B000FEF7CCFC0346FB61D7E90001FEF7C6FC41
:1025C00003463B620023BB841D4A7B695B011344C5
:1025D00008331B681B4A52F823303B630021386BD9
:1025E000FFF768FF164A7B695B01134408331868DC
:1025F000134A7B695B0113440C331B68DAB207F1A1
:102600001803194604F070F87B695B010C4A134407
:102610007B630FE00A4A7B695B01134411331B782B
:10262000042B05D17B695B01054A13447B6301E000
:1026300000237B637B6B18463C37BD4690BD00BFD3
:1026400000020020F4A7000080B483B000AF7860DF
:1026500000BF0C37BD465DF8047B704790B58BB06A
:1026600000AFF86087ED000BFB687B627B6A002B94
:102670002CD07B6A5B7C042B28D102233B74002383
:102680007B747B6AD3E9063418462146FEF75EFC6C
:1026900003467B61D7E90001FEF758FC0346BB61A6
:1026A0000023BB837B6A9B680A4A52F823303B6253
:1026B0000021386AFFF7FEFE7B6A98687B6ADB6858
:1026C000DAB207F11003194604F00EF800BF2C37F8
:1026D000BD4690BDF4A7000080B485B000AF78601F
:1026E0007B68FB60FB68002B06D0FB685B7C042BDF
:1026F00002D1FB6800225A7400BF1437BD465DF852
:10270000047B704780B483B000AF786000BF0C37A3
:10271000BD465DF8047B704780B590B000AF78602F
:102720000B46FB70FB78002B27D107F12403002216
:102730001A605A609A60DA601A615A612D4A7B68A1
:1027400052F833307B62012387F82830012387F861
:1027500029304FF0FF333B6307F12403184604F0A0
:10276000B5F8244A7B68DB00134401221A717B68A8
:10277000DB00204A1344FB6336E0FB78012B31D1A8
:1027800007F10C0300221A605A609A60DA601A613D
:102790005A61184A7B6852F83330FB6001233B755D
:1027A0004FF0FF33BB6107F10C03184604F0FEF84D
:1027B000104A7B68DB00134402221A717B68292BC4
:1027C0000AD97B682C2B07D80A4A7B6852F8333029
:1027D0000121184604F022F97B68DB00054A134406
:1027E000FB6301E00023FB63FB6B18464037BD46EB
:1027F00080BD00BF8800002080B586B000AF786043
:102800007B683B613B69002B0BD03B691B79012B3B
:1028100007D13B691B68184604F00EF90346FB75A7
:1028200001E00023FB753B691B681B0ADBB2FB6000
:102830003B691B68DBB2BB60FB68022B02D1BB6843
:10284000062B05D0FB68002B09D1BB68042B06D1F1
:10285000FB7D002B0CBF01230023DBB2FB75FB7D4E
:1028600018461837BD4680BD80B586B000AF786089
:102870000B46FB707B687B617B69002B2FD07B69EB
:102880001B79022B2BD17B691B681B0ADBB23B61D6
:102890007B691B68DBB2FB603B69012B05D1FB68E0
:1028A000162B08D0FB68152B05D03B69042B0FD1E4
:1028B000FB681A2B0CD17B691A68FB78012B14BFBB
:1028C00001230023DBB21946104604F0A7F806E006
:1028D0007B691B68FA781146184604F09FF800BF20
:1028E0001837BD4680BD80B485B000AF78607B6886
:1028F000FB60FB68002B0ED0FB681B79022B03D119
:10290000FB6800221A7106E0FB681B79012B02D1DB
:10291000FB6800221A7100BF1437BD465DF8047BC6
:10292000704780B400AFFEE780B483B000AF78603A
:102930007B68013B032B0BD801A252F823F000BFA8
:10294000512900005129000051290000512900009F
:1029500000BFFEE7704770470020002104460D4687
:10296000084804F0F3FE04F03BFF2046294601F03E
:10297000B3FE0548002101F0E3FF01F03DFF04F044
:10298000F1FE00008577000054A2000080B584B0FD
:1029900000AFF860B9601346FB71BB681F2B05D907
:1029A0000D4B0E4AFF210E4804F0B2FEFB68BA68D8
:1029B00053F8223023F0807323F4E063FA79120293
:1029C00002F4E06243EA0201FB68BA6843F82210AD
:1029D00000BF1037BD4680BDA0A100007CA2000052
:1029E000ACA1000080B483B000AF78600B46FB70F0
:1029F0007B68FA781A7000BF0C37BD465DF8047B1F
:102A00007047000080B584B000AF3B4600221A60DA
:102A10005A609A60DA60064B3B6002237B723B4649
:102A20001946002003F0ACFB00BF1037BD4680BD47
:102A300080F0FA0280B584B000AF074A3B1D07CA98
:102A400083E807003B1D1946002003F0E7FB00BFA9
:102A50001037BD4680BD00BFF4A1000080B500AFB7
:102A60002A210848FFF7BEFF002212210648FFF77F
:102A70008DFFFFF7C7FFFFF7DDFF044803F022FCDF
:102A800000BF80BD00E007400090044064A2000049
:102A900080B582B000AF7860034801F005FA00BF4E
:102AA0000837BD4680BD00BF903D002098B500AFFF
:102AB000094B0A4A1A600A4B0A4A1C1D13460FCBDF
:102AC00084E80F0001F046FA0246054B1A60064BF7
:102AD000034A1A6000BF98BD903D0020983D002039
:102AE000703D002054A20000883D002080B586B0D3
:102AF00002AF87ED010A38600223FB60FFF7D6FFC3
:102B0000164801F0C1F90346BB60154801F0BCF955
:102B10000346BB60002300930023FA681149124862
:102B200001F0EFF90346BB600023104A0121104871
:102B300001F028FA0346BB60D7ED017A9FED0D7ACC
:102B400067EE877AFCEEE77A17EE901A084801F0F4
:102B500040FA00BF1037BD4680BD00BF903D002049
:102B6000883D0020792B0000983D0020912A00002C
:102B70004C3D002000007A4480B586B000AF7861FB
:102B8000184B1B681B68002B0CBF01230023DBB212
:102B90001A46154B1A7011E03B461449184601F0CD
:102BA00096F900F0D5FA0F4B1B681B68002B14BF79
:102BB00001230023DBB21A460D4B1A700A4B1B7817
:102BC000DBB2002BE8D1084B00221A70786900F0C4
:102BD00011F8002001F0C5F9002318461837BD464A
:102BE00080BD00BF90A2000000000020903D0020AA
:102BF000843D002080B582B000AF7860074B012291
:102C00001A60074B00221A7001F0AAF8054801F07B
:102C10004BF9002318460837BD4680BDAC3D002067
:102C200000000020883D002080B586B000AF7861AC
:102C3000396101F063FB00F0BCF80A4B1B6800220D
:102C40001A6000F00DFE00209FED070AFFF74EFF0F
:102C50003B460649184601F03AF900231846183752
:102C6000BD4680BD90A200006F12833A883D0020CF
:102C700080B500AF002003F0E1FB00BF80BD80B550
:102C800000AF012003F0DAFB00BF80BD80B500AFCC
:102C9000022003F0D3FB00BF80BD80B500AF03204E
:102CA00003F0CCFB00BF80BD80B500AF042003F073
:102CB000C5FB00BF80BD80B500AF052003F0BEFBA3
:102CC00000BF80BD80B500AF062003F0B7FB00BF9A
:102CD00080BD80B500AF072003F0B0FB00BF80BD12
:102CE00080B500AF082003F0A9FB00BF80BD80B510
:102CF00000AF092003F0A2FB00BF80BD80B500AF8C
:102D00000A2003F09BFB00BF80BD80B500AF0B2005
:102D100003F094FB00BF80BD80B500AF0C2003F032
:102D20008DFB00BF80BD80B500AF0D2003F086FB9A
:102D300000BF80BD80B500AF0E2003F07FFB00BF59
:102D400080BD80B500AF0F2003F078FB00BF80BDD1
:102D500080B500AF002003F089FB00BF80BD80B5C7
:102D600000AF002004F012FA00BF80BD80B500AFB4
:102D7000012004F00BFA00BF80BD80B500AF022037
:102D800004F004FA00BF80BD80B500AF032004F05A
:102D9000FDF900BF80BD80B500AF042004F0F6F956
:102DA00000BF80BD80B500AF052004F0EFF900BF83
:102DB00080BD80B582B000AF03F020F90023FB7125
:102DC00006E0FB79184603F0F7FAFB790133FB7153
:102DD000FB79042BF5D9FFF741FE00BF0837BD464C
:102DE00080BD80B400AFFEE780B400AFFEE780B4E2
:102DF00000AFFEE780B400AFFEE780B400AFFEE7AF
:102E000080B400AFFEE780B400AFFEE780B400AF4F
:102E1000FEE780B400AFFEE780B400AFFEE780B409
:102E200000AFFEE780B400AFFEE780B400AFFEE77E
:102E300080B400AFFEE780B400AFFEE780B400AF1F
:102E4000FEE780B400AFFEE780B400AFFEE780B4D9
:102E500000AFFEE780B400AFFEE780B400AFFEE74E
:102E600080B400AFFEE780B400AFFEE780B400AFEF
:102E7000FEE780B400AFFEE780B400AFFEE780B4A9
:102E800000AFFEE780B400AFFEE780B400AFFEE71E
:102E900080B400AFFEE780B400AFFEE780B400AFBF
:102EA000FEE780B400AFFEE780B400AFFEE780B479
:102EB00000AFFEE780B400AFFEE780B400AFFEE7EE
:102EC00080B400AFFEE780B400AFFEE780B400AF8F
:102ED000FEE780B400AFFEE780B400AFFEE780B449
:102EE00000AFFEE780B400AFFEE780B400AFFEE7BE
:102EF00080B400AFFEE780B400AFFEE780B400AF5F
:102F0000FEE780B400AFFEE780B400AFFEE780B418
:102F100000AFFEE780B400AFFEE780B400AFFEE78D
:102F200080B400AFFEE780B400AFFEE780B400AF2E
:102F3000FEE780B400AFFEE780B400AFFEE780B4E8
:102F400000AFFEE780B400AFFEE7000090B400AF32
:102F5000154B0022DA76144B00221A77134BD3E973
:102F60000C34114AC2E902340F4B01221A760E4B7F
:102F700001225A770C4B00225A760B4B00229A768C
:102F8000094B00229A77084B0122DA77064B002280
:102F900083F82220054BD3E91634034AC2E90034F2
:102FA00000BFBD4690BC7047B03D00200800002027
:102FB00090B400AF154B0022DA76144B00221A773A
:102FC000134BD3E90834114AC2E902340F4B0122F2
:102FD0001A760E4B01225A770C4B00225A760B4B75
:102FE00000229A76094B01229A77084B0022DA7761
:102FF000064B002283F82320054BD3E91434034AFF
:10300000C2E9043400BFBD4690BC7047B03D00200B
:103010000800002080B582B000AF78607B685B68F4
:10302000012B08D17B681B7A002B04D07B681B69BD
:103030001846FFF758FC00BF0837BD4680BD80B575
:1030400082B000AF78607868FFF7E4FF00BF083710
:10305000BD4680BD80B582B000AF78607B681B78CC
:10306000002B05D17B6801221A707868FFF7E7FF13
:1030700000BF0837BD4680BD80B582B000AF786024
:103080007B685B68012B08D17B681B7A002B04D01E
:103090007B681B691846FFF726FC00BF0837BD4652
:1030A00080BD80B582B000AF78607868FFF7E4FF3C
:1030B00000BF0837BD4680BD80B582B000AF7860E4
:1030C0007B681B78002B05D17B6801221A70786819
:1030D000FFF7E7FF00BF0837BD4680BD80B582B06F
:1030E00000AF78607B685B68012B0DD17B681B7A31
:1030F000002B09D07B681B691846FFF7EDFA7B6847
:103100001B691846FFF7FEFA00BF0837BD4680BDB1
:1031100080B582B000AF78607868FFF7DFFF00BF4E
:103120000837BD4680BD80B582B000AF78607B684F
:103130001B78002B05D17B6801221A707868FFF795
:10314000E7FF00BF0837BD4680BD0000000000005B
:10315000B0B582B000AFB84BD3E90601B74BD3E9A5
:1031600002341A462346FDF7BFFE0346002B05D165
:10317000B24BD3E90234B04AC2E90634AE4B1B6904
:103180001846FFF739FB0346FB71AB4BD3E90E0141
:10319000AA4BD3E900341A462346FDF7A5FE0346A1
:1031A000002B05D1A54BD3E90034A34AC2E90E3464
:1031B000A14B1B6B1846FFF71FFB0346BB719E4BD1
:1031C000D3F86C31B3F1FF3F06D09B4BD3F86C3191
:1031D0000133994AC2F86C31974B93F87031002B48
:1031E0001FD1954B012283F87021934B042283F861
:1031F0007121934B002283F82320914B002283F806
:1032000021208F4B002283F822208D4A4FF00003AB
:103210004FF00004C2E90234894B012283F82020D8
:1032200069E2854B93F87131013B052B00F23E8238
:1032300001A252F823F000BF513200006F320000AB
:10324000AD33000049340000F33400002D36000097
:103250007B4B012283F82120774B022283F87121D6
:10326000754B0022C3F86C21FFF7A2FE43E2744BBA
:103270000022DA76724B00221A77714B01221A76FD
:103280006F4B01225A776E4B00225A766C4B00220C
:103290009A766B4B01229A77694B0022DA77684B5A
:1032A000002283F82320644BD3F86C51634BD3E99D
:1032B00004341A4623465EA1D1E90001FDF7D6FC8D
:1032C00003460C46184621465C4BD3E90A341A469D
:1032D0002346FDF7E9F903460C4644EC173BB0EEF4
:1032E000470AF0EE670A04F083F954EC103B1846E5
:1032F0002146FDF72BFE03469D4228D34E4B032269
:1033000083F871214C4B0022C3F86C214C4B0022F6
:103310001A764B4B01225A77494B0122DA76484BF9
:1033200000229A77464B00225A76454B00229A7625
:10333000434B0022DA77424B00221A77404B01229E
:1033400083F823203E4B002283F82120BDE13A4B35
:10335000D3F86C41394B93ED107BB0EE470AF0EE99
:10336000670A04F045F953EC102B10461946FDF797
:10337000EDFD03469C42C0F0A881304BD3E91E010D
:103380004FF000022F4BFDF7AFFD0346002B00D19D
:103390009BE1FB79002B00F09881274B012283F8F9
:1033A0007121274B012283F821208EE1244B00223A
:1033B0001A76234B01225A77214B0122DA76204BD1
:1033C00000229A771E4B00225A761D4B00229A76D5
:1033D0001B4B0022DA771A4B00221A77184B012276
:1033E00083F82320164B002283F82120124BD3F8B8
:1033F0006C41124B93ED0A7BB0EE470AF0EE670A80
:1034000004F0F6F853EC102B10461946FDF79EFD1C
:1034100003469C42C0F05B81074B022283F8712176
:10342000054B0022C3F86C21FFF7C2FD4FE100BF3E
:1034300000000000004CED40D83D002008000020B6
:10344000B03D002000000840A54B002283F8232057
:10345000A34B002283F82120A14B002283F82220D5
:103460009F4B012283F820209E4BD3E91E014FF091
:1034700000024FF08043FDF737FD0346002B0AD1D1
:10348000984BD3E91E014FF00002974BFDF72CFD3E
:103490000346002B0AD0954B022283F87121934BEF
:1034A0000022C3F86C21FFF783FD24E18D4BD3E9A3
:1034B0001E014FF000024FF00003FDF715FD03461B
:1034C000002B0BD1874BD3E91E014FF00002884B34
:1034D000FDF70AFD0346002B00D10CE1834B0522CA
:1034E00083F87121814B0022C3F86C21FFF72EFD78
:1034F00001E17B4B0022DA76794B00221A77784B78
:1035000001221A76764B01225A77754B00225A76A1
:10351000734B00229A76724B00229A77704B0122ED
:10352000DA776F4B002283F82220704BD3F86C516E
:103530006C4BD3E904341A46234667A1D1E9000154
:10354000FDF794FB03460C4618462146654BD3E92C
:103550000E341A462346FDF7A7F803460C4644EC02
:10356000173BB0EE470AF0EE670A04F041F854EC5E
:10357000103B18462146FDF7E9FC03469D4228D33F
:103580005A4B062283F87121584B0022C3F86C2154
:10359000534B00221A76524B01225A77504B00228D
:1035A000DA764F4B00229A774D4B00225A764C4BDD
:1035B00000229A764A4B0022DA77494B01221A7789
:1035C000474B012283F82220454B002283F821201B
:1035D0007FE0464BD3F86C41424B93ED127BB0EE4B
:1035E000470AF0EE670A04F003F853EC102B10467C
:1035F0001946FDF7ABFC03469C426AD3394BD3E92D
:103600001E014FF000023A4BFDF76EFC0346002B03
:1036100000D15EE0BB79002B5BD0344B072283F8EE
:1036200071212F4B012283F8212052E02C4B0022E4
:103630001A762B4B01225A77294B0022DA76284B37
:1036400000229A77264B00225A76254B00229A7642
:10365000234B0022DA77224B01221A77204B0122DA
:1036600083F822201E4B002283F821201F4BD3F821
:103670006C411C4B93ED0E7BB0EE470AF0EE670AEF
:1036800003F0B6FF53EC102B10461946FDF75EFC15
:1036900003469C422ED3154B052283F87121134B10
:1036A0000022C3F86C21FFF751FC23E00C4B0122F0
:1036B00083F821200D4B052283F871210B4B00224A
:1036C000C3F86C21FFF742FC15E000BF13E000BF18
:1036D00011E000BF0FE000BF00000000004CED4013
:1036E000B03D00200800002000000840D83D002028
:1036F0000000F03F00BF574B1A6D574B1B7E194619
:103700001046FFF7B1F8534B5C6E534BD3E9000101
:1037100001231D464FF000024FF00003FDF7E4FBCC
:103720000346002B01D000231D46EBB2194620466C
:10373000FFF79AF8474B9A6F474B5B7E1946104646
:10374000FFF792F8434BD3F88C40434BD3E9020187
:1037500001231D464FF000024FF00003FDF7C4FBAC
:103760000346002B01D000231D46EBB2194620462C
:10377000FFF77AF8374BD3F86821374B93ED047B8A
:10378000B0EE470AF0EE670A1046FEF767FF314BCE
:10379000D3F8A020304B9B7E19461046FFF764F803
:1037A0002C4BD3F8B4202C4BDB7E19461046FFF788
:1037B0005BF8284BD3F8C820274B1B7F19461046CF
:1037C000FFF752F8234BD3F8DC20234B5B7F1946DD
:1037D0001046FFF749F81F4BD3F8F0201E4B9B7F94
:1037E00019461046FFF740F81A4BD3F804211A4B3C
:1037F000DB7F19461046FFF737F8164BD3F8182130
:10380000154B93F8203019461046FFF72DF8114B51
:10381000D3F82C21104B93F8213019461046FFF7AE
:1038200023F80C4BD3F840210B4B93F82230194668
:103830001046FFF719F8074BD3F85421064B93F8BD
:10384000233019461046FFF70FF800BF0837BD4672
:10385000B0BD00BFD83D0020B03D002000000000FA
:1038600090B585B000AFBA4B01221A70B84B002258
:103870005A60B74A4FF00003B64CC2E90634B44B65
:1038800000221A70B44BD3E90234B14AC2E90634BB
:10389000AF4BFB60AE4B00221A72AD4B01225A6057
:1038A00000210020FEF738FF0246FB681A61A84B92
:1038B00001221A72A64B012283F82020A44B002279
:1038C0005A62A34A4FF00003A24CC2E90E34A04B47
:1038D000002283F82020A04BD3E900349C4AC2E99F
:1038E0000E349E4BFB609A4B002283F82820984BA5
:1038F00001225A6200210120FEF70EFF0246FB68FA
:103900001A61934B012283F82820914B012283F8FE
:1039100040208F4B00225A648D4B002283F84020B8
:103920008F4BBB608A4B002283F84820884B0122D2
:103930005A6401210220FEF7EFFE0246BB681A61BD
:10394000834B012283F84820814B012283F85420C5
:103950007F4B00229A657E4B002283F85420814BD6
:10396000BB607B4B002283F85C20794B01229A6577
:1039700001210320FEF7D0FE0246BB681A61744B9A
:10398000012283F85C20724B012283F86820704B7F
:103990000022DA666E4B002283F86820724BBB600F
:1039A0006B4B002283F87020694B0122DA660121FB
:1039B0000420FEF7B1FE0246BB681A61644B012287
:1039C00083F87020624B012283F87C20604B002238
:1039D000C3F880205E4B002283F87C20634BBB60E1
:1039E0005B4B002283F88420594B0122C3F88020CE
:1039F00001210520FEF790FE0246BB681A61544B78
:103A0000012283F88420524B012283F85821504B25
:103A10000022C3F85C214E4B002283F85821544BFE
:103A20007B604B4B002283F86021494B0122C3F895
:103A30005C219FED431B9FED440B0620FEF752FDDA
:103A400002467B681A61424BD3F868311846FEF78C
:103A5000FBFD3F4B012283F860213D4B012283F89F
:103A600090203B4B0022C3F89420394B002283F86E
:103A70009020404BBB60364B002283F89820344B9B
:103A80000122C3F8942001210720FEF745FE0246DB
:103A9000BB681A612E4B012283F898202C4B01221F
:103AA00083F8A4202A4B0022C3F8A820284B002228
:103AB00083F8A420304BBB60254B002283F8AC2058
:103AC000234B0122C3F8A82001210820FEF724FE81
:103AD0000246BB681A611E4B012283F8AC201C4BC6
:103AE000012283F8B8201A4B0022C3F8BC20184BDF
:103AF000002283F8B820214BBB60154B002283F8CD
:103B0000C020134B0122C3F8BC2001210920FEF77D
:103B100003FE0246BB681A610D4B012283F8C020E8
:103B20000B4B012283F8CC20094B0022C3F8D02094
:103B3000074B002283F8CC2022E000BFAFF30080C7
:103B400000000000000000000000000000409F4056
:103B5000D83D00200000F0BF08000020F83D002004
:103B6000183E00202C3E0020403E0020543E002005
:103B7000303F0020683E00207C3E0020903E002028
:103B80006F4BBB606F4B002283F8D4206D4B01223A
:103B9000C3F8D02001210A20FEF7BEFD0246BB6813
:103BA0001A61684B012283F8D420664B012283F806
:103BB000E020644B0022C3F8E420624B002283F82B
:103BC000E020614BBB605F4B002283F8E8205D4B37
:103BD0000122C3F8E42001210B20FEF79DFD0246DF
:103BE000BB681A61574B012283F8E820554B01222C
:103BF00083F8F420534B0022C3F8F820514B0022E5
:103C000083F8F420514BBB604E4B002283F8FC201C
:103C10004C4B0122C3F8F82001210C20FEF77CFD5B
:103C20000246BB681A61474B012283F8FC20454BD2
:103C3000012283F80821434B0022C3F80C21414B99
:103C4000002283F80821424BBB603E4B002283F8E0
:103C500010213C4B0122C3F80C2101210D20FEF75D
:103C60005BFD0246BB681A61364B012283F81021C6
:103C7000344B012283F81C21324B0022C3F820214F
:103C8000304B002283F81C21324BBB602D4B0022AD
:103C900083F824212B4B0122C3F8202101212A2063
:103CA000FEF73AFD0246BB681A61264B012283F8F3
:103CB0002421244B012283F83021224B0022C3F817
:103CC0003421204B002283F83021234BBB601D4B55
:103CD000002283F838211B4B0122C3F83421012133
:103CE0002B20FEF719FD0246BB681A61154B012215
:103CF00083F83821134B012283F84421114B002211
:103D0000C3F848210F4B002283F84421134BBB60BA
:103D10000C4B002283F84C210A4B0122C3F84821A6
:103D200001212C20FEF7F8FC0246BB681A61054B06
:103D3000012283F84C2100BF1437BD4690BD00BF5F
:103D4000A43E0020D83D0020B83E0020CC3E0020FC
:103D5000E03E0020F43E0020083F00201C3F0020F1
:103D600080B500AF1A48FFF775F91A48FFF772F9E6
:103D70001948FFF7A1F91948FFF79EF91848FFF70E
:103D80009BF91848FFF798F91748FFF7CCF917483F
:103D9000FFF792F91648FFF78FF91648FFF78CF9ED
:103DA0001548FFF789F91548FFF786F91448FFF71A
:103DB00083F91448FFF780F91348FFF77DF913489A
:103DC000FFF77AF91248FFF777F900BF80BD00BF0F
:103DD000D83D0020F83D0020183E00202C3E002059
:103DE000403E0020543E0020303F0020683E00202E
:103DF0007C3E0020903E0020A43E0020B83E0020E3
:103E0000CC3E0020E03E0020F43E0020083F002091
:103E10001C3F002084B080B582B000AF07F1100CC9
:103E20008CE80F003B69796A184600F0DBFF034617
:103E30007B607B6818460837BD46BDE8804004B00B
:103E4000704784B080B500AF07F1080C8CE80F0014
:103E5000BB68F969184600F0E5FF03461846BD4601
:103E6000BDE8804004B0704780B582B000AF786094
:103E700039607B684FF0FF323968184600F0E0FF88
:103E800078680837BD4680BD80B485B000AF7860E3
:103E90007B6801225A600123FB60FB6818461437D7
:103EA000BD465DF8047B704780B584B002AF786092
:103EB0007B681B687A68526801921A6900920FCB7E
:103EC000FFF7A8FF034618460837BD4680BD80B5FA
:103ED00084B002AF786039603B681B683A6852680A
:103EE00001921A6900920FCBFFF7ABFF3B685A684B
:103EF0007B6811461846FFF7B7FF78680837BD465C
:103F000080BD80B586B000AFF860B9607A603B6074
:103F1000FB68BA685A60FB687A689A60FB6801229D
:103F2000DA603A68FB681A61FB680433396A18463C
:103F300000F006FD0246FB681A60FB681B68002B58
:103F400014BF01230023DBB27B617B69184618375D
:103F5000BD4680BD80B500AF00F040FD0346184669
:103F600080BD80B584B000AF786000F037FD0346B7
:103F7000FB60F86800F03EFD0346BB6000BF1037F1
:103F8000BD4680BD80B586B000AFF8607A603B600A
:103F90000B46FB72FB6803F10C02FB689A60FB683E
:103FA0007A685A60FB680433F97A3A68184600F078
:103FB00015FE0246FB681A60FB681B68002B14BFE5
:103FC00001230023DBB27B617B6918461837BD46AD
:103FD00080BD80B584B000AF786039607B681B68B5
:103FE0003968184600F02CFE0346FB60FB68184653
:103FF0001037BD4680BD000080B584B000AF78604A
:10400000114B1B68002B02D10F4B104A1A600E4B4C
:104010001B68FB600C4B1A687B6813440C4A934284
:1040200007D903F099FB02460C2313604FF0FF33CE
:1040300006E0054B1A687B681344034A1360FB686B
:1040400018461037BD4680BD543F00200000FF1FBA
:104050000000002080B489B000AF284BFB60284AE4
:10406000284B9A4216D00023FB610AE0254AFB69DF
:1040700052F823202249FB6941F82320FB690133D0
:10408000FB61FB689B08FA699A42EFD31E4B1C4AFE
:104090009A6002E01C4B1B4A9A601C4BBB611C4B94
:1040A0007B611C4BBB60BA687B69D31AFB6107E07C
:1040B0007A69531C7B61BB69591CB96112781A700B
:1040C000FB695A1EFA61002BF2D1134B3B61134B73
:1040D0007B607A683B69D31AFB6104E03B695A1C38
:1040E0003A6100221A70FB695A1EFA61002BF5D161
:1040F00000BF2437BD465DF8047B70470000000018
:10410000000000000000000000ED00E000000020C2
:104110007CB20000F4C00000780E0020CC400020EB
:1041200080B400AF6B4BD3F888306A4A43F4700315
:10413000C2F88830684B4CF22052DA81664B4DF65B
:104140002812DA81644B4FF4E9721A80634B1B78B2
:10415000DBB203F00103002B0FD0614B9B78DBB285
:1041600003F00803002B2ED05D4B9B78DBB25C4A3A
:1041700043F00803DBB2937025E05A4B03F58153FB
:104180001C331B68574943F0005201F581531C331F
:104190001A60554B1B6903F48073002B13D1524BEB
:1041A0001B6923F47C53504A43F4407313614E4B14
:1041B0001B694D4A43F4807313614B4B1B694A4A98
:1041C00023F400731361494B2A221A70454B03F5FF
:1041D000825304334FF08A721A60424B1B6823F4F7
:1041E0004023404A43F4002313603E4B03F58053C1
:1041F00004331B6823F440333A4943F4803201F519
:10420000805304331A60374B03F5815318331B680E
:10421000344943F4007201F5815318331A60344B6A
:104220009B6C334A23F0807323F4E0639364314B37
:1042300000221A722F4B5B78DBB223F06003DBB2F3
:104240002C4A43F02003DBB253702B4B80221A70B0
:10425000284B00221A73274BBA221A7000BF254B35
:104260009B79DBB203F01003002BF8D1214BDB78F4
:10427000DBB2204A03F01F03DBB2D3701D4B1322C5
:104280001A711C4B18225A711A4B5B79DBB2194A0E
:1042900043F04003DBB2537100BF164B9B79DBB296
:1042A00003F04003002BF8D0124B1B78DBB2114A0D
:1042B00003F03F03DBB2137000BF0E4B9B79DBB200
:1042C00003F00C030C2BF8D100BFBD465DF8047B56
:1042D000704700BF00ED00E00020054000F00740FF
:1042E00000D007400070044000D0034000E00740C9
:1042F00000900440004006400050064080B483B067
:1043000000AF964B1B78DBB203F0C003002B40F0EC
:10431000D280924B5B79DBB203F04003002B40F07C
:10432000AD808E4B1B78DBB203F00403002B4ED123
:104330008A4B1B7BDBB203F00303002B02D0012B63
:1043400003D006E0864B7B6006E04FF400437B60C1
:1043500002E0844B7B6000BF804B5B78DBB203F0F4
:104360003003002B23D07D4B1B7BDBB203F0030318
:10437000012B1CD0794B1B78DBB203F03803302BB8
:1043800005D0382B07D14FF4C0637B800EE04FF48B
:10439000A0637B800AE0714B1B78DBB2DB0803F083
:1043A0000703202202FA03F37B8000BF09E06B4B76
:1043B0001B78DBB2DB0803F00703012202FA03F3E8
:1043C0007B807B887A68B2FBF3F37B6002E04FF47A
:1043D00000437B60614BDB78DBB203F0E003602BD2
:1043E00029D0602B06D8202B17D0402B1CD0002BB7
:1043F0000CD09DE0A02B2CD0A02B02D8802B21D05C
:1044000096E0C02B2CD0E02B31D091E07A68134697
:104410009B001344DB017B608AE07A6813469B00B3
:1044200013441B027B6083E07A6813461B019B1ACE
:10443000DB017B607CE07A6813469B0013445B02DF
:104440007B6075E07B684FF4377202FB03F37B609F
:104450006EE07B684FF4B76202FB03F37B6067E0BA
:104460007B6840F6950202FB03F37B6060E07B68AB
:1044700040F6713202FB03F37B6059E0374B1B7946
:10448000DBB29BB203F01F039BB201337B807B88BE
:10449000334AB2FBF3F37B60304B5B79DBB29BB208
:1044A00003F01F039BB218337B807A887B6802FB82
:1044B00003F37B603CE0294B1B78DBB203F0C003C5
:1044C000402B1AD1254B5B78DBB203F00103002BA4
:1044D00003D14FF400437B602AE0204B1B7ADBB210
:1044E0005B0803F00703012202FA03F37B807B8859
:1044F0001D4AB2FBF3F37B601AE0184B1B78DBB26A
:1045000003F0C003802B22D1144B1B7BDBB203F0E2
:104510000303002B02D0012B03D006E0104B7B607D
:1045200006E04FF400437B6002E00E4B7B6000BF6F
:104530000E4B03F5825304331B681B0F03F00F036C
:1045400001337A68B2FBF3F3094A136000E000BF5D
:104550000C37BD465DF8047B704700BF0040064045
:1045600080F0FA02006CDC0200093D00007004409B
:10457000C004002000B5DFF80CC000DFDFF808C081
:1045800000DFFEE7E5480000FD4800002DE9F041AE
:10459000334C237853B1334B1B68FF229A70324A55
:1045A0000020012310702370BDE8F0812F4B3048AC
:1045B000196800F055FD10B18520BDE8F08101F0CB
:1045C00005FC284B21781B68FF229A700029E6D150
:1045D000284A1368002B40D0556845B12A78002A34
:1045E00039D1191D890089B2284600F0F9FD224B06
:1045F000224A1E68156066B35D68EA1C062A28D840
:10460000DF68B7B139461A4800F038FD804600B37C
:10461000291D41EA072130460023424601F06CFA89
:10462000054670B94146124800F050FD144B1D601C
:10463000B5E7291D30463B463A4601F05DFA05468E
:1046400038B1104B104A013D53F82550AB6A5A63FC
:10465000ECE70025EAE70D46C9E71D46C7E700BFBE
:1046600024400020684000202540002030A20000A7
:104670005031002048A2000038A20000443D002034
:10468000203D0020143D00207545000038B5104C39
:10469000207808B1002038BD0E4D2B6893F8241007
:1046A00001F0AEF92B68DA78FF2A08D06A68094968
:1046B00052B101F001FC01232370002038BD9A6A39
:1046C000203282F30988F1E781E80C00F1E700BFAE
:1046D00025400020684000202DE9F041EFF30584DB
:1046E00014B18220BDE8F081EFF31484E40704D50F
:1046F000DFF800C100DFBDE8F081334C237853B10F
:10470000324B1B68FF229A70314A0020012310703F
:104710002370BDE8F0812F4B2F48196800F0A0FCF2
:1047200010B18520BDE8F08101F050FB274B2178C6
:104730001B68FF229A700029E6D1284A1368002BD3
:1047400040D0556845B12A78002A39D1191D890011
:1047500089B2284600F044FD214B224A1E681560AC
:1047600066B35D68EA1C062A28D8DF68B7B1394607
:10477000194800F083FC804600B3291D41EA072157
:1047800030460023424601F0B7F9054670B941466C
:10479000114800F09BFC144B1D60B5E7291D304605
:1047A0003B463A4601F0A8F9054638B10F4B104A8E
:1047B000013D53F82550AB6A5A63ECE70025EAE760
:1047C0000D46C9E71D46C7E7244000206840002089
:1047D0002540002030A200005031002048A20000F7
:1047E00038A20000443D0020203D0020143D002060
:1047F000754500008D45000010B588B0EFF30584C5
:1048000014B1822008B010BDEFF3148404F0030447
:10481000022C1DD0032C14D0012C16D008AC84F32C
:1048200009880F4C2478E40716D5022484F31488F1
:10483000BFF34F8FBFF36F8FDFF828C000DF08B0E2
:1048400010BD074C2478E407F6D5FF2008B010BD52
:10485000034C2478E407EFD4032484F31488E7E7B7
:1048600020A200008D460000002833D0F8B506686D
:1048700076B34768FB1C062B2AD8C26804460D464F
:10488000BAB11146144800F0F9FB064600B362685D
:10489000E1682068043242EA01212B46324601F0E9
:1048A0002BF9044660B931460B4800F00FFC204656
:1048B000F8BD0B463046391D01F01EF9044638B1EB
:1048C000013C064B064A53F82400836A5A63F8BD3C
:1048D0000020F8BD0020704750310020143D00201A
:1048E0007545000008B501F083F818B10138024B96
:1048F00053F8200008BD00BF143D002098B1830785
:1049000011D103787BB9C18C10B571B9C0780C4650
:1049100001F07AF9FF280ED01CB12146074800F0BB
:10492000D5FB002010BD80207047C46AC07801F01C
:104930006BF9FF28F0D1812010BD00BF503100205D
:10494000F8B5EFF305846CBBEFF31484E40702D4ED
:104950001D4C24781CB1DFF880C000DFF8BD08B31F
:104960000668FEB14768FB1C062B1BD8C2680D46C3
:104970000446CAB11146154800F080FB064688B1CE
:104980006268E1682068043242EA01212B4632461F
:1049900001F0B2F8044678B931460C4800F096FBB5
:1049A0002046F8BD0020F8BD0B463046391D01F009
:1049B000A3F804460028F5D0601E054B054A53F8BD
:1049C0002000836A5A63F8BD254000205031002042
:1049D000143D0020754500006948000010B5EFF354
:1049E00005841CB9DFF808C000DF10BD002010BD31
:1049F000E548000010B5EFF305840CB1822010BD2E
:104A0000DFF804C000DF10BDFD48000098B130B4ED
:104A100004689CB143689BB101290DD8094C2468F6
:104A200064B11C7944B9012558611C6059711A613F
:104A30001D71184630BC70470020FBE72046F9E79F
:104A40001846F7E7203D0020820703D110B119B9BD
:104A50008620704780207047F8B52B4B1A680023DA
:104A600012F1FF3643F1FF3704464FF47A70E0FB52
:104A7000016730463946FCF789FA2379012B10D0BB
:104A8000022B0CD1214D2B684BB19C4237D01946DB
:104A900002E0944226D011460A68002AF9D181200A
:104AA000F8BD1A4DE06002222B6822715BB1996853
:104AB000884204D20EE0916881420DD813461A68EC
:104AC000401A002AF7D10022A0602260A3B11C6026
:104AD0000020F8BD1A460023A06091682260081AE1
:104AE0009060F3E722680A602268002ADED09668A8
:104AF000A16831449160D9E72C601846F8BD22685E
:104B00002A601346F1E700BF24A2000028400020DD
:104B1000830704D130B143690169186870470020E8
:104B200001467047014670472DE9F04F294F3C6818
:104B300083B054B3A668DFF8A080013EA660B946F2
:104B40004FF0000A0EBBD8F8003025683D6023B155
:104B500093F800B0BBF1010F02D00420FDF7E4FE92
:104B60001846019300F09EFB019B0028F5D01846E3
:104B7000214600F09BFB6379012B09D084F804B037
:104B80001DB1AE682C46002EDDD003B0BDE8F08F1D
:104B9000D9F80000E26858B18168914204D90DE06B
:104BA000996891420CD818460368521A002BF7D125
:104BB000C4F800A0A26050B10460E1E703463046AB
:104BC000A260996823608A1A9A600028F4D13C6038
:104BD000D6E700BF28400020443D002030B5EFF369
:104BE000058404BBEFF31484E40702D4114C247849
:104BF0001CB1DFF848C000DF30BD98B10368A3B135
:104C0000436893B101290CD80B4D2D687DB11D79F6
:104C10003DB9012459711C7158611D601A61184613
:104C200030BD204630BD002030BD184630BD28467E
:104C300030BD00BF25400020203D00200D4A00006F
:104C400010B5EFF305840CB1822010BDDFF804C06D
:104C500000DF10BD494A000008B50C4E3568EFF37F
:104C600005844FF0FF312846002CF8D1DFF820C032
:104C700000DF1028F2D10846DFF818C000DF044634
:104C80000028EBD00846A047E8E700BF443D0020DD
:104C9000694E0000114B000078B183070DD10378F5
:104CA0005BB90B0C1B0443B910B50B46048BC178E0
:104CB00098B200F015FD204610BD4FF0004070473F
:104CC00078B183070DD103785BB90B0C1B0443B992
:104CD00010B50B46048BC17898B200F02DFD20462C
:104CE00010BD4FF0004070472DE9F0414FEA1048E9
:104CF0004FEA0848B8F1000F37D10D46044698B185
:104D000080B2002937D1012200F0C4FC02284FD024
:104D1000002D0CBF002340230024254618464146A1
:104D20002A462B46BDE8F081002938D04B1C4CD0D8
:104D3000294B994244D8294B1A684FF6FE714FF41B
:104D40007A73501E03FB0505B5FBF2F58D423AD987
:104D500000224FF6FF7000F09DFC02282BD1204B63
:104D60001A680823B2F81A80D6E7002186200A467E
:104D70000B46BDE8F0814A1C2AD0174B99421CD83B
:104D8000164B1E684FF47A72731E4FF6FE7102FBCB
:104D90000533B3FBF6F38B42B5D899B2B3E742467D
:104DA0004FF6FF7000F076FC0228D8D04346B3E7F8
:104DB000A0460823B0E74023AEE74FF6FE71A2E716
:104DC0004FF6FE71C4E7A9B2C2E74FF6FF71BFE725
:104DD0004FF6FF7197E700BF00093D0024A20000D5
:104DE0006840002070B5EFF305851DB9DFF830C0CD
:104DF00000DF70BD044678B183070DD103785BB93D
:104E00000B0C1B040E463BB92346248BD978B0B259
:104E100000F09EFC204670BD4FF0004070BD0000C9
:104E2000994C000010B5EFF305841CB9DFF80CC0F5
:104E300000DF10BD4FF0004010BD0000C14C00006D
:104E400070B50446EFF3058545B908461146DFF80D
:104E500014C000DF84E80700204670BD8223036091
:104E6000204670BDE94C0000F0B5044685B000282E
:104E700036D00378012B05D0002180200A460B464E
:104E800005B0F0BD03460C4681B90A4602A900F000
:104E9000B5F901282DD00024264627461024029D6E
:104EA0002046294632463B4605B0F0BD4A1C28D074
:104EB000154A91421AD8154A10684FF47A75411E66
:104EC0004FF6FE7205FB0414B4FBF0F1914216D9C3
:104ED000184602A900F092F90128DCD1402109E02E
:104EE000802021462246234605B0F0BD4FF6FE72D3
:104EF000EEE721460024264627460C46CFE78AB235
:104F0000E6E74FF6FF72E3E700093D0024A2000048
:104F10002DE9F0478046C08C244B80088A4640D05B
:104F2000D3F800900746D8F82C6006EB8704630797
:104F300048BF043C4FF08073A4F1400544F8043CA2
:104F400044F808AC28463822002102F021FFD8F8A6
:104F50001C3044F8203C19F0805FC8F82850C8F88D
:104F600030A01AD0112F18D9A7F110004008431E05
:104F70000CD02A464FF0CC31013B42F8041C42F8D9
:104F8000081DF9D1C000C0F1080005442B1F9E4246
:104F90003CBF4FF0CC3345F8043C054B3360BDE8D3
:104FA000F0871B68C3F38D079946BCE718A2000081
:104FB000A52E5AE290F82520836A12B92033196091
:104FC000704760331960704710B490F82540836AC9
:104FD0002CB9203383E806005DF8044B704760333A
:104FE00083E806005DF8044B704700BF084B1B6860
:104FF000DA0107D5074B1B68DB0703D5064B1B6897
:10500000002B00DB7047054B01221A70704700BF70
:10501000FCED00E0800E00E0000E00E02C400020DF
:1050200010B4094C2268084B002AFBD0026B1A60AE
:105030001A68054C002AFBD0C37843EA012189B2E3
:1050400021805DF8044B70477C0000E003490B6849
:10505000024A002BFBD0C0B2107070477C0000E009
:10506000034648B1072907D90439002208441860CB
:105070005A5010465A6070470120704718B3F9B172
:105080000B3110B4036821F0030102E018461B68DD
:105090005BB144681A1A121B9142F7D84CB102193D
:1050A0000351516002F10803026018465DF8044B99
:1050B000704700F1080341605DF8044B18467047E3
:1050C0000B46184670470346FBE700BFD0B1C9B195
:1050D00010B4A1F10804A04216D0036823B90DE072
:1050E0001A68184652B113469C42F9D160B151F882
:1050F000083C036000205DF8044B704701205DF818
:10510000044B70470120704700206060F3E700BF48
:10511000002A30B41FDB033222F003020C24BAB1A0
:1051200013198B4214D8044401448D1AA3189D42CC
:1051300004604160826015D3002100E003469818A6
:10514000854263501144F9D20020186030BC70478A
:10515000012030BC704722F00042073222F00702E3
:105160001024DCE72346EFE7EFF3108372B6026802
:1051700003F001030AB11168016003B962B6104679
:10518000704700BF81420DD3436899420AD2EFF3C2
:10519000108372B602680A60016013F0010003D147
:1051A00062B670470120704700207047426882B1A4
:1051B00010B500F01DF9044600F034FA01216170C9
:1051C0002046FFF7F7FE21460448BDE8104000F0F6
:1051D000E7B8428801324280704700BF3440002067
:1051E0001039002389080122C18102704370837045
:1051F0004360038143818381704700BF70B5858917
:105200000446CDB14389C289181D01339BB254F8BD
:10521000200008609A42638104BF002363816368B1
:1052200013B16378022B1FD0EFF3108372B6013DE8
:10523000A58162B6002070BD16465AB143685BB1C5
:10524000174B196800F0ACF83046082100F0A8FBB5
:10525000012070BD012070BD114A12684260012119
:10526000536090604170EFE7204600F0C1F80021E4
:105270000546FFF79FFE2389E289E869191D01337E
:105280009BB29A4244F82100238104BF002323816A
:10529000284600F0C7F9284600F044FB002070BD06
:1052A00068400020C2898089101A704708B500F054
:1052B000CFF9BDE8084000F085BA00BF426870B57C
:1052C0000346002A4FD04678022E0D46044625D0CC
:1052D000032E02D0012E10D070BD0846FFF744FF08
:1052E00005460028F8D0204600F082F829460446FA
:1052F000FFF760FE0123637007E000F079F80446D1
:105300002A461021FFF760FE6670204600F08AF9F9
:1053100021462248BDE8704000F042B800F068F82D
:1053200000210546FFF746FE2389E9691A1D44F866
:105330002210EFF3108272B6A2890132A28162B606
:10534000E28901339BB29A42238104BF0023238167
:10535000012328466B7000F065F929460F48BDE827
:10536000704000F01DB88489C589AC4210D2008914
:10537000061D43F82610EFF3108172B601349C81AC
:1053800062B6013080B2854214BF18811A8170BDA7
:105390000320BDE87040FDF7C7BA00BF34400020CD
:1053A00030B4057842688C78013DEDB2F2B1937863
:1053B000A34204D20FE0987884420ED81A4653686C
:1053C000002BF8D10023022D4B60516000D9002240
:1053D0008A6030BC704713460246022D4B60516014
:1053E00098BF9960F3D88A6030BC70470246E9E7FD
:1053F00002784368013A59684160022A07D811B11E
:10540000002288605A6000229A6018467047002285
:105410005A601846704700BF034B5A68426000222A
:1054200058608260704700BF34400020816830B40B
:10543000002931D00B780A461BB992681378002BEB
:10544000FBD043684B60436803B19960157851689D
:105450008478013DEDB200292ED08B78A34204D28E
:105460000FE09A7894420ED819464B68002BF8D179
:105470000023022D436048600BD90023836030BCB9
:1054800070470B461146022D4360486098BF9860F4
:10549000F3D8816030BC70474378012BEFD1074BC4
:1054A0005A68904204D01346002AF9D1034ACDE746
:1054B00042685A60014AC9E71146D9E734400020E2
:1054C00030B4164CE2681AB3A38A994203D822E09A
:1054D000D4689CB12246948A23449942F8D8D5686E
:1054E000C560D060C468026104B120615B1A9BB2E0
:1054F0008382918ACB1A938230BC70479BB2CB1ABD
:105500000021C16030BCD06002619382818270470B
:1055100013462246F3E715462246E1E74C400020B9
:105520002DE9F041314EF068002856D0B58A013D92
:10553000ADB2B582002D50D1DFF8B8E02C4B9EF80B
:105540000070B3F80080013FFFB24FF0010C826899
:1055500032B14368536043680BB19A60456085601F
:10556000DEF804208478002A39D09378A34204D24C
:105570001BE099788C421AD81A465368002BF8D150
:10558000022F4560506000D9002243788260042BCE
:10559000828A17D0C36880F801C0DBB11E6113494D
:1055A000C5600561EAB91846D1E71346114A436060
:1055B000022F506098BF9860E6D843788260042B31
:1055C000828AE7D1C38A80F801C043448382C368DA
:1055D000002BE3D1B282F3600361BDE8F081054A9C
:1055E000CEE78A82CB60BDE8F08100BF4C4000204E
:1055F000304000203440002083682BB142685A605C
:10560000426842B193607047054B5A68904203D09C
:105610001346002AF9D1704742685A60704700BFAC
:1056200034400020036973B1C268DA60C16859B1BF
:1056300030B4828A9D8A00242A449A820B61C46015
:1056400030BC0023036170479982002303617047D7
:1056500030B40F4BDC78EFF3108272B69A78944234
:1056600008D9551C1A789D70551CAC4214BFEDB278
:1056700000251D7062B6944205D903EBC20330BC0D
:10568000586099607047022030BCFDF74DB900BFEB
:10569000903C002038B5114B6AB11A68138B30EA80
:1056A000030413D006250C4650832946204600F0FB
:1056B00077F9012038BD1A68138B10EA03040AD069
:1056C00023EA000010835483022038BD23EA00003F
:1056D0001083022038BD0525E5E700BF68400020A3
:1056E0000139144B10B553F8214044B1238B627833
:1056F000618B1843062A208318D0052A00D010BDDC
:1057000010EA0103FBD0638320EA010020832046D6
:10571000FFF788FF012320466370628B0821FFF7A3
:1057200053FC2046BDE8104000F0FCB831EA00030D
:10573000EAD010BD143D00200139044B53F821304C
:105740001BB11A8B22EA000018837047143D002019
:1057500008B50139064B53F821303BB101461846D4
:10576000FFF776FFBDE8084000F02CB808BD00BF89
:10577000143D002038B5038B4278458B1943062A27
:10578000018319D0052A00D038BD11EA0503FBD0EA
:10579000438321EA050104460183FFF743FF012308
:1057A00020466370628B0821FFF70EFC21460448F7
:1057B000BDE83840FFF7F4BD35EA0103E9D038BD54
:1057C00034400020054B1A7812B101229A707047BC
:1057D000034B4FF080521A60704700BF940E0020B8
:1057E00004ED00E038B51A4B1A4D186801234370D8
:1057F000FFF712FEAB786C7893B921E0012A1AD03A
:10580000FFF7D4FCEB7801349C4208BF0024EFF38F
:10581000108372B6AB78013BDBB2AB7062B67BB182
:1058200005EBC4014B681A781846002AE6D10989AD
:10583000FFF7A0FFE6E789681846FFF73FFDE1E7BD
:1058400005486C70FFF7D4FDBDE8384000F058B84B
:1058500068400020903C0020344000200A4A0B4958
:105860000B480C4B10B414680C600B4A0024072141
:105870000460196013685DF8044B43F07F434FF0F8
:10588000FF301360704700BF1CA2000014E000E06E
:1058900018E000E010E000E020ED00E0704700BFFD
:1058A00008B50B4B186801234370FFF7B5FDFDF7F2
:1058B00052F8084A136801331360FFF731FEFFF70F
:1058C00033F90548FFF794FDBDE8084000F018B82B
:1058D000684000203040002034400020064B1B6808
:1058E000DA6A9B6A9A4203D81268044B9A4202D041
:1058F0000120FDF719B8704768400020A52E5AE234
:10590000064A074B12785860022141702AB11B6881
:10591000984202D0C078FFF799BB70472C40002016
:105920006840002038B508B31A4D827804462868CC
:1059300083789A420BD9FFF76FFD174A2B681278CC
:105940000120022158706C60617042B938BD01239A
:10595000637021461148BDE83840FFF721BD9C42E5
:10596000F4D0E078BDE83840FFF770BB0B48FFF794
:105970003FFD094A074B1278586002214170002A06
:10598000E4D01B688342E1D0C078BDE83840FFF71F
:105990005DBB00BF684000202C4000203440002048
:1059A000F8B138B54FF6FF7398420C460D4D03D051
:1059B00001462868FFF784FD2B680B485C70FFF7F1
:1059C00017FD0A4B68601B7806490222427003B932
:1059D00038BD0B689842FBD0C078BDE83840FFF76F
:1059E00035BB704768400020344000202C40002028
:1059F000024B186800B1C078704700BF68400020B3
:105A000070B558B9374D2B68997083F82410364C0F
:105A1000626892788A4236D8002070BD334B1B886A
:105A2000984201D9FF2070BD0138314B53F8204016
:105A3000002CF7D02B4DA1702B6884F824109C42C9
:105A4000E5D02046FFF7F2FC6678012EE4D1264827
:105A5000FFF7CEFC0446002836D02868A278837869
:105A60009A422AD9FFF7D8FC224A2B6812785E7036
:105A700002216C606170002ACED09C42CCD0E078CC
:105A8000FFF7E4FAC8E719462046FFF789FC2B68C0
:105A9000144E01225A702046FFF7AAFC154B68608D
:105AA0001B7802224270002BB6D033688342B3D0F9
:105AB000C078FFF7CBFA002070BD667021460A4817
:105AC000FFF76EFC002070BD0748FFF791FC094B03
:105AD00068601B7802224270002B9DD02B68984290
:105AE000E6D199E7684000203440002014A200006D
:105AF000143D00202C4000202DE9F04111F0FF0F53
:105B00000C460646394890461F4608BF0134FFF749
:105B10002BFB054600282ED00020C4F30F210123C3
:105B2000E4B2C5F82C80EF61E984AC7085F82440BC
:105B300028706860A860E86028612862A882E8820E
:105B40002883688385F825006B70B9B128463146F3
:105B5000FFF7DEF9264B188868B1264E3368002B14
:105B600041D03246012303E052F8041F59B12346C5
:105B70005C1C8442F8D90020BDE8F0811E48FFF784
:105B8000F3FAE862E2E7E2B21C4F46F823503B78B2
:105B9000EA701BBB1A4EAA78306883789A420CD9F7
:105BA000FFF73AFC33683A7801200221587075609B
:105BB00069705AB92046BDE8F08101236B7029460F
:105BC0001048FFF7EDFB2046BDE8F0819D42F1D083
:105BD000E878FFF73BFA2046BDE8F081012128462E
:105BE000FFF71EFAD6E701221446CDE7980E0020F3
:105BF00014A20000143D0020400F00202C40002083
:105C000068400020344000202DE9F047684F3C6890
:105C100048B1E378984206D0664B1B88984259D920
:105C2000FF20BDE8F08700236370FAF770FCA062E4
:105C3000FFF754FE3B681C6AE4B101266368204606
:105C4000002B3FD0FFF7D4FB00210546FFF7B2F948
:105C50002846FFF7E7FC6E7029465748FFF7A0FB80
:105C6000E3682A6AE260A56066802C621C46002C0C
:105C7000E4D13B68DA785149514D52484C4E013AD3
:105C8000002441F82240D96AFFF77CFA3B682A7861
:105C9000DC6222B118462146FFF7C2F933684A4850
:105CA000434E1946FFF76EFA002443483C60FFF765
:105CB0009FFB2B78786002224270002B61D100207C
:105CC000BDE8F087E2686380A360E3601446002CBF
:105CD000B4D1CEE7461EDFF8E4A05AF82690B9F119
:105CE000000F9DD04846FFF787FC4846FFF79AFC17
:105CF000D9F820404FF00108E4B163682046002B3A
:105D000048D0FFF775FB00210546FFF753F92846F9
:105D1000FFF788FC85F8018029462748FFF740FBFC
:105D2000E3682A6AE260A560A4F802802C621C463F
