:1000000000000020F5040000272B00002D2B00002D
:10001000332B0000392B00003F2B000000000000B4
:100020000000000000000000000000006505000066
:10003000452B0000000000000B0600006B060000CE
:10004000B5290000C3290000D1290000DF290000E4
:10005000ED290000FB290000092A0000172A0000F2
:10006000252A0000332A0000412A00004F2A000000
:100070005D2A00006B2A0000792A0000872A000010
:10008000952A00004B2B0000512B0000572B00003D
:100090005D2B0000632B0000692B00006F2B00001C
:1000A000752B00007B2B0000812B0000872B0000AC
:1000B0008D2B0000932B0000992B0000A32A000039
:1000C0009F2B0000B12A0000A52B0000BF2A0000D2
:1000D000AB2B0000CD2A0000B12B0000B72B000095
:1000E000BD2B0000C32B0000C92B0000CF2B00004C
:1000F000D52B0000DB2B0000E12B0000E72B0000DC
:1001000005050000050500000505000005050000C7
:10011000ED2B0000F32B0000F92B0000FF2B00005B
:10012000052C00000B2C0000112C0000172C0000E7
:100130001D2C0000232C0000292C00002F2C000077
:10014000352C00003B2C0000DB2A0000412C000075
:10015000E92A0000472C00004D2C0000532C000021
:10016000592C00005F2C0000652C00006B2C000057
:10017000712C0000772C00007D2C0000832C0000E7
:10018000892C00000505000005050000050500009C
:100190000505000005050000050500000505000037
:1001A0000505000005050000050500000505000027
:1001B0000505000005050000050500000505000017
:1001C0000505000005050000050500000505000007
:1003F000050500000505000005050000FFFFFFFFE3
:10040000FFFFFFFFFFFFFFFFFFFFFFFFFEFFFFFFFD
:1004400010B5054C237833B9044B13B10448AFF30E
:1004500000800123237010BDB80B002000000000B5
:10046000D49E000008B5034B1BB103490348AFF30A
:10047000008008BD00000000BC0B0020D49E0000DE
:10048000154B002B08BF134B9D46A3F5803A002166
:100490008B460F461348144A121A06F06DFF0F4B95
:1004A000002B00D098470E4B002B00D0984700201F
:1004B000002104000D000D48002802D00C4806F071
:1004C00039FC06F081FC2000290002F04FFA06F00A
:1004D0003DFC00BF000008000000002000000000FC
:1004E0009D260000B80B0020003E0020356D000066
:1004F0006D6D000072B603F05FFC03F0F7FB62B6AF
:10050000FFF7BEFFFFF7FEBF80F309887047EFF3E8
:1005100009807047684680F309885A480078C00708
:1005200014BF0220032080F314887047DFF858C1FD
:10053000EFF305831B0618BF6047EFF31483DB0757
:1005400008BF604700DF7047DFF840C1EFF3058365
:100550001B0618BF6047EFF31483DB0708BF604733
:1005600000DF7047EFF30980816911F8021CE1BBDD
:1005700090E80F1010B5E047BDE81040EFF3098C8C
:100580008CE80700424B93E80600914208BF704791
:1005900041B91EF0100F16D13E49086820F0010045
:1005A000086010E01EF0100F06BF2CED108A01202D
:1005B000002081F825002CE9F00FC1F828C00CB408
:1005C00004F0D8FF0CBC1A60D2F828C0BCE8F00FC9
:1005D00092F8250000280EBF6FF0020E6FF0120E89
:1005E000BCEC108A8CF30988704710B52A4A12684F
:1005F000914209D8294C54F8214090E80F10A047A7
:10060000EFF3098C8CE80F0010BD10B504F036FF35
:10061000BDE810401E4B93E80600914208BF7047AA
:10062000EFF3098C1EF0100F06BF2CED108A01208D
:10063000002081F825002CE9F00FC1F828C00CB487
:1006400004F098FF0CBC1A60D2F828C0BCE8F00F88
:1006500092F8250000280EBF6FF0020E6FF0120E08
:10066000BCEC108A8CF30988704710B504F064FF65
:10067000FFF7CEBF10B504F05DFF04F05DFFFFF79C
:10068000C7BF0000A0970000014E00001D4E0000F3
:100690009C3D002034EF00E000000000FCFFFFFF65
:1006A00081F0004102E000BF83F0004330B54FEA23
:1006B00041044FEA430594EA050F08BF90EA020F90
:1006C0001FBF54EA000C55EA020C7FEA645C7FEA23
:1006D000655C00F0E2804FEA5454D4EB5555B8BF46
:1006E0006D420CDD2C4480EA020281EA030382EAB7
:1006F000000083EA010180EA020281EA0303362D49
:1007000088BF30BD11F0004F4FEA01314FF4801C1B
:100710004CEA113102D0404261EB410113F0004F2D
:100720004FEA03334CEA133302D0524263EB4303E4
:1007300094EA050F00F0A780A4F10104D5F1200E82
:100740000DDB02FA0EFC22FA05F2801841F10001DD
:1007500003FA0EF2801843FA05F359410EE0A5F1B1
:1007600020050EF1200E012A03FA0EFC28BF4CF0E2
:10077000020C43FA05F3C01851EBE37101F0004598
:1007800007D54FF0000EDCF1000C7EEB00006EEBA5
:100790000101B1F5801F1BD3B1F5001F0CD349082F
:1007A0005FEA30004FEA3C0C04F101044FEA445286
:1007B00012F5800F80F09A80BCF1004F08BF5FEA0D
:1007C000500C50F1000041EB045141EA050130BDED
:1007D0005FEA4C0C404141EB010111F4801FA4F190
:1007E0000104E9D191F0000F04BF01460020B1FAE5
:1007F00081F308BF2033A3F10B03B3F120020CDA1D
:100800000C3208DD02F1140CC2F10C0201FA0CF0FA
:1008100021FA02F10CE002F11402D8BFC2F1200C5F
:1008200001FA02F120FA0CFCDCBF41EA0C01904015
:10083000E41AA2BF01EB0451294330BD6FEA04045E
:100840001F3C1CDA0C340EDC04F11404C4F1200249
:1008500020FA04F001FA02F340EA030021FA04F35B
:1008600045EA030130BDC4F10C04C4F1200220FAB2
:1008700002F001FA04F340EA0300294630BD21FAF0
:1008800004F0294630BD94F0000F83F4801306BFB6
:1008900081F480110134013D4EE77FEA645C18BFAA
:1008A0007FEA655C29D094EA050F08BF90EA020F41
:1008B00005D054EA000C04BF1946104630BD91EA39
:1008C000030F1EBF0021002030BD5FEA545C05D13C
:1008D0004000494128BF41F0004130BD14F580047B
:1008E0003CBF01F5801130BD01F0004545F0FE41EF
:1008F00041F470014FF0000030BD7FEA645C1ABF24
:10090000194610467FEA655C1CBF0B46024650EA5A
:10091000013406BF52EA033591EA030F41F4002186
:1009200030BD00BF90F0000F04BF0021704730B50C
:100930004FF4806404F132044FF000054FF00001E1
:1009400050E700BF90F0000F04BF0021704730B5A2
:100950004FF4806404F1320410F0004548BF404277
:100960004FF000013EE700BF42004FEAE2014FEACC
:1009700031014FEA02701FBF12F07F4393F07F4FA7
:1009800081F06051704732F07F4208BF704793F0AA
:100990007F4F04BF41F40021704730B54FF46074BD
:1009A00001F0004521F000411CE700BF50EA0102C0
:1009B00008BF704730B54FF000050AE050EA010269
:1009C00008BF704730B511F0004502D5404261EBD9
:1009D00041014FF4806404F132045FEA915C3FF41A
:1009E000D8AE4FF003025FEADC0C18BF03325FEAB7
:1009F000DC0C18BF033202EBDC02C2F1200300FA68
:100A000003FC20FA02F001FA03FE40EA0E0021FA8C
:100A100002F11444BDE600BF70B54FF0FF0C4CF47A
:100A2000E06C1CEA11541DBF1CEA135594EA0C0F2C
:100A300095EA0C0F00F0DEF82C4481EA030621EA67
:100A40004C5123EA4C5350EA013518BF52EA0335A2
:100A500041F4801143F4801338D0A0FB02CE4FF054
:100A60000005E1FB02E506F00042E0FB03E54FF084
:100A70000006E1FB03569CF0000F18BF4EF0010E7C
:100A8000A4F1FF04B6F5007F64F5407404D25FEA78
:100A90004E0E6D4146EB060642EAC62141EA55512B
:100AA0004FEAC52040EA5E504FEACE2EB4F1FD0C6D
:100AB00088BFBCF5E06F1ED8BEF1004F08BF5FEAEB
:100AC000500E50F1000041EB045170BD06F000469D
:100AD00046EA010140EA020081EA0301B4EB5C044A
:100AE000C2BFD4EB0C0541EA045170BD41F4801142
:100AF0004FF0000E013C00F3AB8014F1360FDEBF67
:100B0000002001F0004170BDC4F10004203C35DA42
:100B10000C341BDC04F11404C4F1200500FA05F3C5
:100B200020FA04F001FA05F240EA020001F0004266
:100B300021F0004110EBD37021FA04F642EB0601DC
:100B40005EEA430E08BF20EAD37070BDC4F10C0406
:100B5000C4F1200500FA04F320FA05F001FA04F2CA
:100B600040EA020001F0004110EBD37041F10001B6
:100B70005EEA430E08BF20EAD37070BDC4F12005C1
:100B800000FA05F24EEA020E20FA04F301FA05F229
:100B900043EA020321FA04F001F0004121FA04F2D1
:100BA00020EA020000EBD3705EEA430E08BF20EAA1
:100BB000D37070BD94F0000F0FD101F000464000DB
:100BC00041EB010111F4801F08BF013CF7D041EA5D
:100BD000060195F0000F18BF704703F00046520061
:100BE00043EB030313F4801F08BF013DF7D043EA32
:100BF0000603704794EA0C0F0CEA135518BF95EAE8
:100C00000C0F0CD050EA410618BF52EA4306D1D16E
:100C100081EA030101F000414FF0000070BD50EA8D
:100C2000410606BF1046194652EA430619D094EA17
:100C30000C0F02D150EA013613D195EA0C0F05D101
:100C400052EA03361CBF104619460AD181EA030155
:100C500001F0004141F0FE4141F470014FF000000D
:100C600070BD41F0FE4141F4780170BD70B54FF0A8
:100C7000FF0C4CF4E06C1CEA11541DBF1CEA135528
:100C800094EA0C0F95EA0C0F00F0A7F8A4EB05040A
:100C900081EA030E52EA03354FEA013100F0888001
:100CA0004FEA03334FF0805545EA131343EA1263CA
:100CB0004FEA022245EA111545EA10654FEA00267F
:100CC0000EF000419D4208BF964244F1FD0404F538
:100CD000407402D25B084FEA3202B61A65EB030594
:100CE0005B084FEA32024FF480104FF4002CB6EB51
:100CF000020E75EB030E22BFB61A754640EA0C00D1
:100D00005B084FEA3202B6EB020E75EB030E22BF10
:100D1000B61A754640EA5C005B084FEA3202B6EB51
:100D2000020E75EB030E22BFB61A754640EA9C0010
:100D30005B084FEA3202B6EB020E75EB030E22BFE0
:100D4000B61A754640EADC0055EA060E18D04FEA9E
:100D5000051545EA16754FEA06164FEAC30343EA3E
:100D600052734FEAC2025FEA1C1CC0D111F4801F0B
:100D70000BD141EA00014FF000004FF0004CB6E704
:100D800011F4801F04BF01430020B4F1FD0C88BFA3
:100D9000BCF5E06F3FF6AFAEB5EB030C04BFB6EBAE
:100DA000020C5FEA500C50F1000041EB045170BDA1
:100DB0000EF0004E4EEA113114EB5C04C2BFD4EBCE
:100DC0000C0541EA045170BD41F480114FF0000E52
:100DD000013C90E645EA060E8DE60CEA135594EACE
:100DE0000C0F08BF95EA0C0F3FF43BAF94EA0C0FD1
:100DF0000AD150EA01347FF434AF95EA0C0F7FF446
:100E000025AF104619462CE795EA0C0F06D152EA99
:100E100003353FF4FDAE1046194622E750EA41067D
:100E200018BF52EA43067FF4C5AE50EA41047FF48E
:100E30000DAF52EA43057FF4EBAE12E74FF0FF3CF3
:100E400006E000BF4FF0010C02E000BF4FF0010CC4
:100E50004DF804CD4FEA410C7FEA6C5C4FEA430C3D
:100E600018BF7FEA6C5C1BD001B050EA410C0CBF8C
:100E700052EA430C91EA030F02BF90EA020F0020EE
:100E8000704710F1000F91EA030F58BF994208BF55
:100E900090422CBFD8176FEAE37040F00100704712
:100EA0004FEA410C7FEA6C5C02D150EA013C07D169
:100EB0004FEA430C7FEA6C5CD6D152EA033CD3D0B4
:100EC0005DF8040B704700BF8446104662468C46AE
:100ED0001946634600E000BF01B5FFF7B7FF0028E1
:100EE00048BF10F1000F01BD4DF808EDFFF7F4FF0A
:100EF0000CBF012000205DF808FB00BF4DF808ED95
:100F0000FFF7EAFF34BF012000205DF808FB00BFB7
:100F10004DF808EDFFF7E0FF94BF012000205DF8D9
:100F200008FB00BF4DF808EDFFF7CEFF94BF01208E
:100F300000205DF808FB00BF4DF808EDFFF7C4FF87
:100F400034BF012000205DF808FB00BF4A0011D229
:100F500012F5001211D20DD56FF47873B3EB625213
:100F60000ED44FEAC12343F0004343EA505323FA1F
:100F700002F070474FF00000704750EA013002D194
:100F80004FF0FF3070474FF00000704753B94AB937
:100F9000002908BF00281CBF4FF0FF314FF0FF3081
:100FA00001F0F8B8ADF1080C6DE904CE00F006F8D8
:100FB000DDF804E0DDE9022304B070472DE9F047D5
:100FC000089E04468846002B4BD18A42154667D9B5
:100FD000B2FA82F24AB1C2F1200701FA02F320FA12
:100FE00007F7954047EA030894404FEA154E230C53
:100FF000B8FBFEF71FFA85FC0EFB178843EA08438F
:1010000007FB0CF1994209D9EB1807F1FF3080F08A
:101010001B81994240F21881023F2B445B1AA4B213
:10102000B3FBFEF00EFB103344EA034400FB0CFC60
:10103000A44509D92C1900F1FF3380F00781A4459C
:1010400040F2048102382C4440EA0740A4EB0C042F
:1010500000271EB1D4400023C6E900433946BDE84D
:10106000F0878B4209D9002E00F0EB800027C6E9FB
:10107000000138463946BDE8F087B3FA83F7002F00
:1010800047D18B4202D3824200F2FA80841A61EB8C
:10109000030301209846002EE0D0C6E90048DDE7B2
:1010A00002B9FFDEB2FA82F2002A40F08F80491BBB
:1010B0004FEA154E1FFA85F80127B1FBFEFC230C01
:1010C0000EFB1C1143EA014308FB0CF1994207D9BE
:1010D000EB180CF1FF3002D2994200F2CD80844629
:1010E000591AA3B2B1FBFEF00EFB101443EA0444FC
:1010F00008FB00F8A04507D92C1900F1FF3302D2F4
:10110000A04500F2B6801846A4EB080440EA0C4063
:101110009FE7C7F1200CBB4022FA0CFE4EEA030EFB
:1011200001FA07F420FA0CF521FA0CF34FEA1E48F5
:101130002543B3FBF8F92C0C08FB19331FFA8EFA80
:1011400044EA034309FB0AF49C4202FA07F200FA5C
:1011500007F10BD91EEB030309F1FF3080F0878004
:101160009C4240F28480A9F1020973441B1BADB27A
:10117000B3FBF8F008FB103345EA034400FB0AFA1E
:10118000A24508D91EEB040400F1FF336BD2A2453F
:1011900069D90238744440EA0940A0FB0289A4EBF3
:1011A0000A044C45C2464B4654D351D0002E69D058
:1011B000B1EB0A0564EB030404FA0CFCFD40FC40AF
:1011C0004CEA0505C6E90054002747E7C2F12003B1
:1011D00020FA03F7954001FA02F021FA03F34FEAEF
:1011E000154E3843010CB3FBFEF71FFA85F80EFBD2
:1011F000173341EA034107FB08F38B4204FA02F478
:1012000007D9691807F1FF3C2FD28B422DD9023F35
:101210002944CB1A81B2B3FBFEF00EFB103341EA36
:10122000034100FB08F38B4207D9691800F1FF3C2A
:1012300017D28B4215D902382944C91A40EA074708
:101240003BE73746304609E70746E7E61846FBE640
:101250004145ABD2B8EB020A69EB0E0201381346E6
:10126000A4E76046E9E7184695E76746D1E7814677
:101270007CE702382C4447E7ACF1020C2B442FE703
:10128000384608E73746E9E603685A004CBF43F0A2
:10129000004323F000431844704700BF61B32DE9B9
:1012A000F84F01F1FF3A90460646D146002707EB7A
:1012B000090404EBD4746410E50071190846FFF7C3
:1012C000E3FFA245834605F10800304409D0FFF74B
:1012D000DBFFC34500F1FF3005D8404509D2671C4C
:1012E000E5E7C34505D9A74202D004F1FF39DEE79F
:1012F00000210846BDE8F88F08467047012807D04E
:10130000022807D0044B00280CBF18460020704765
:101310000248704702487047E9190000ED190000C3
:10132000F119000030B5254B83B004468D1E4BB338
:1013300001A92846AFF30080F0B101992A46FFF7D2
:10134000ADFF0146C0B1FFF79FFF4B68A064012BC2
:101350002ED0002B01F1040026DBFFF795FF0023C0
:10136000C4E913030368002B12DBFFF78DFF002392
:101370002061184603B030BD0023236109231846BD
:1013800003B030BD0E490F48091AC9100191D5E7C5
:10139000C3F30360FFF7B2FF002814BF0023092343
:1013A0002061184603B030BD0123C4E91303D9E717
:1013B000002323610523184603B030BD0000000060
:1013C00070A2000078A000000368DA0710B5044698
:1013D00006D49B0700F1480009D500F05FFC2368A4
:1013E000590709D51A070ED5DB0613D510BD00F035
:1013F0004DFC23685907F5D404F1D00000F056FCE9
:1014000023681A07F0D404F5A87000F057FC23688D
:10141000DB06EBD404F5E870BDE8104000F092BCA8
:10142000036803B103441846704700BF09207047A2
:10143000704700BF70B504460D4608E02B6C636131
:101440002A462369214601209847082808D1296C9B
:101450002046FFF767FF06460028EFD005F044FC62
:101460000728FBD13046296CFFF7E2FF281D00F06A
:1014700001FC00BF2DE9F0470C1D054617460FCCB7
:10148000ADF5727D03AE0FC60FCC0FC60FCC0FC6E5
:1014900094E80F0002ACD5F80C80D5F8189086E8D7
:1014A0000F000023236021E0236C6B614FF4F07286
:1014B00021467AA800F070FE2B697AAA29463046A8
:1014C0009847889BCDE900498246636431462B46A4
:1014D0002A460120C0470746F8B94FF4F0727AA9AE
:1014E000204600F059FEBAF1080F1CD1216C2846A5
:1014F000FFF718FF002F08BF0926074618BF0A2666
:101500000028D1D0A36B46F01001CDE900492A464E
:10151000636401202B46C04700B1092738460DF50A
:10152000727DBDE8F087BAF1070FF6D13846216C1D
:10153000FFF77EFF03A800F09DFB00BF406C7047E3
:10154000F0B5CB6B0B640D1D0F4606460FCDF9B001
:1015500001AC0FC40FCD0FC40FCD0FC495E80F0021
:101560004FF0FF3584E80F00009506E033696A46C6
:10157000314698470828044608D110993046FFF7AD
:10158000D1FE0028F2D0092079B0F0BD6846FFF7FF
:101590001BFF062CF7D139463046FFF74BFF00BF43
:1015A00030B4DD6BC160826119461D64002230BC1D
:1015B00060E700BF70B5C66843690B64BEB90369D4
:1015C0000A4604460D46014602209847072807D0E0
:1015D000082803D129462046FFF72CFF05F084FB9D
:1015E0003046296CFFF724FF281D00F043FB012241
:1015F000FFF740FF05F078FBC2681AB1CA6B0A64B6
:10160000002237E79CE700BF704700BF836813B133
:101610000146012018477047042907D8DFE801F088
:101620000308060808000BB90F2A03D902207047E7
:101630000120704700EB820218465368009A13603D
:10164000704700BF10B584B0002303AC0A46009475
:101650001946FFF7E1FF039804B010BD042907D82D
:10166000DFE801F00308060808000BB90F2A03D9C8
:10167000022070470120704700EB8200009A126838
:1016800042601846704700BF10B584B004AC002318
:1016900044F8042D0A4600941946FFF7DFFF04B012
:1016A00010BD00BFF0B5D36B1364151D07460E4681
:1016B0000FCDADF50F7D17AC0FC40FCD0FC40FCDFF
:1016C0000FC495E80F004FF0FF3584E80F00169522
:1016D00010E016A8FFF7D8FF314616A8B84716AA9B
:1016E000694678B9049B08209847052804460AD023
:1016F000092807D026996846FFF714FE6A460C2190
:101700000028E6D0092416A8FFF75EFE20460DF556
:101710000F7DF0BD2DE9F04F0D46C96C89B00C1D51
:10172000164600F0030B0A6806941F46002B68D08B
:10173000130CD9B212048DF81D30022304EB81047E
:1017400005928DF81C302B6DBBF1020F08BFAC6BFE
:1017500013F0010346D1019300F008030093D4F87D
:101760000090B9F1000F00F0F380022F45D0B4F8DB
:101770000090B4F802800434AB6C28F0010A0F2109
:1017800030469A44FFF75EFF824534D829F00103C2
:101790005344834294BF002001204FEA480808F0D8
:1017A000020809F0010948EA0908B8F1010F3AD026
:1017B00031D3B8F1020F1AD1236823F0004ABBF1EC
:1017C000000F66D130B1009A002A6CD0BAF1000F38
:1017D00000F09080002B00DA04340AF1010304EBDE
:1017E0008304BCE7304605A900F046FB78B1092028
:1017F00009B0BDE8F08F0020CFE7D4F804800834AA
:10180000BAE7120203230592ADF81C309BE70820CB
:1018100009B0BDE8F08FBBF1000F02D0002840F006
:10182000B48004349BE7BBF1000F18D1A8B1D4E910
:101830000023991C4FEAD272D9D005F15801013327
:10184000049100F0B580201DFFF7EAFD04AB0146CE
:101850002846AFF30080002867D108347FE70D21C8
:101860003046D5F82080FFF7EDFE8045F5D1AB6A14
:101870009C42F2D12046FFF707FD0F210246304679
:10188000FFF702FF30462A460021FFF7FDFE072042
:10189000AEE70D213046D5F82080FFF7D3FE804516
:1018A00032D0236896E7BAF1000F23D005F1580330
:1018B00004F10408CDF808B0DDF800900397A346C2
:1018C0001C4602E05745B94640D040460494FFF715
:1018D000A7FD04AB014600222846AFF3008009F1C2
:1018E000010708F104080028ECD0D1455C46DDE989
:1018F00002B7D6D130460D21FFF7A4FE049B286223
:10190000C5E90934062073E7AB6A9C42C9D10422B9
:101910004FF00008A318C5E90AA8C5E90C232368FD
:1019200043454DDB0123019357E780460D213046A7
:10193000FFF788FEB8F1020F28623ED12B46049AC9
:1019400043F82C2F6B62AC62062051E75C46D1E76E
:1019500005A9304600F090FA00287FF448AF019BBB
:10196000002B3FF454AF0F213046FFF76BFE0E21E2
:1019700002463046FFF788FE30461A4A0F21FFF72D
:1019800083FE072009B0BDE8F08F2046FFF77CFCFE
:1019900004340746AC632846AFF3008000283FF4C8
:1019A00026AF30463A460F21FFF76EFE07201FE7AD
:1019B00030460D21FFF746FE2862049B6B62C2E7AA
:1019C0000AF1010004EB8000FFF75EFC0F210246E4
:1019D0003046FFF759FE30462A464146FFF754FE8F
:1019E000072005E700000000002393E6012391E6AD
:1019F00002238FE62DE9F0410546C4B0042906D83C
:101A0000DFE801F04D2B05030900032B5FD0022016
:101A100044B0BDE8F081002BF9D1102AF7D82B682B
:101A2000DC0600F1F48022AC2046019200F094F92B
:101A3000A86B019A0023012606FA03F1114203D094
:101A4000016844F8231004300133042BF4D1A86357
:101A5000204600F077F90020DAE7012B4FEA124622
:101A600097B252D0052BD2D106EB0708B8F1200F60
:101A7000CDD80F2E40F29980B846002F40F0DB8081
:101A8000AA6BAA630F2E40F2BE80B8F1000F02D0FD
:101A900002A800F00BF9002044B0BDE8F081002B53
:101AA000B5D1AC6B97B2281D012606FA03F1394275
:101AB00003F1010302D0216801600434102B00F10E
:101AC0000400F2D112F40050E5D1AC63A0E7160C8B
:101AD00097B2F319102B9AD82B681A075DD422AC51
:101AE000204600F00DF904EBC601AB6B3FB103EBF0
:101AF000C702186841F8040B04339342F9D1204619
:101B0000AB6300F0DBF8002082E7F219102A3FF601
:101B10007EAF0F2E3FF67BAF2A68D10708D5284647
:101B200022F0030240F8482B019300F0B3F8019B28
:101B3000019322AC204600F0ADF8A96B019B002F69
:101B400000F095807F0004EBC6044FF00008043CD1
:101B500001EB870251F8040B44F8040F9142F9D1CC
:101B6000B8F1000F0FD002AC102E314638BF102153
:101B700004EBC101843902EBC80452F8040B41F8AC
:101B8000040F9442F9D1012B7FF47BAF22AC0432D5
:101B9000AA63204600F07AF87DE723F008032B6063
:101BA00005F5A87000F0ACF899E7B8F1100F2A68B5
:101BB00043D9D007A8F110080BD5284622F001021E
:101BC00042F0020240F8482B019300F06BF82A68BB
:101BD000019B510725D40F2E04D822A8019300F0B1
:101BE00061F8019B019302AC204600F063F8C6F156
:101BF00010010029AA6B019BB6DD22AC4F0004EB5B
:101C0000C6041146A3E722A800F048F83DE723F0F8
:101C100010032B6005F5E870019200F09DF8019A21
:101C200001E7284622F0040240F8D02B019300F08F
:101C300041F8019BCFE72A68CBE7D0070AD52846B1
:101C400022F0010242F0020240F8482B019300F01A
:101C500029F8019B019322AC204600F023F8B846F6
:101C6000A96B019B002F7FF46DAF0A4609E70A4676
:101C70008DE700BF00F1340191E838009C46A6468C
:101C80004CF8045D90E8FF0FE54600BD90EC210B99
:101C9000704700BF80EC210B704700BF90EC200B19
:101CA000704700BF80EC200B704700BFD0EC200BCA
:101CB000704700BFC0EC200B704700BFF0EC020182
:101CC000F0EC0211F0EC0221F0EC0231F0EC0241F8
:101CD000F0EC0251F0EC0261F0EC0271F0EC0281E8
:101CE000F0EC0291F0EC02A1F0EC02B1F0EC02C1D8
:101CF000F0EC02D1F0EC02E1F0EC02F1704700BF31
:101D0000E0EC0201E0EC0211E0EC0221E0EC023137
:101D1000E0EC0241E0EC0251E0EC0261E0EC027127
:101D2000E0EC0281E0EC0291E0EC02A1E0EC02B117
:101D3000E0EC02C1E0EC02D1E0EC02E1E0EC02F107
:101D4000704700BFB0FC0181B0FC0191B0FC01A163
:101D5000B0FC01B1704700BFA0FC0181A0FC019163
:101D6000A0FC01A1A0FC01B1704700BFEC4600B58A
:101D70002DE900502DE9FF1F4FF000032DE90C0065
:101D800001A9FFF7DDFBDDF840E012B0704700BFAE
:101D9000EC4600B52DE900502DE9FF1F4FF0000380
:101DA0002DE90C0001A9FFF705FCDDF840E012B0B9
:101DB000704700BFEC4600B52DE900502DE9FF1F2C
:101DC0004FF000032DE90C0001A9FFF715FCDDF829
:101DD00040E012B0704700BFEC4600B52DE900505E
:101DE0002DE9FF1F4FF000032DE90C0001ABFFF7B9
:101DF000D7FBDDF840E012B0704700BFEC4600B5FD
:101E00002DE900502DE9FF1F4FF000032DE90C00D4
:101E100001AAFFF747FCDDF840E012B0704700BFB1
:101E2000027A82B9437AABB14268013B10B4437283
:101E300013680321141D01721A02446002605DF8E8
:101E4000044B180E70470368013A02721A020260CE
:101E5000180E7047B020704700B585B003AA002364
:101E6000009219460C22FFF7D7FB039805B05DF8E6
:101E700004FB00BFF0E700BF2DE9F043054685B045
:101E80000E464FF000083046FFF7CAFFB028044660
:101E900000F0B180070620D500F0F003802B65D05C
:101EA000902B36D0A02B78D0B02B47D0C02B00F091
:101EB0008A8000F0F803D02B0BD100F0070201322A
:101EC00042F40022052301212846FFF793FD002854
:101ED000D9D0092005B0BDE8F0830DF10C0900232D
:101EE00019468700CDF800900D222846FFF794FB95
:101EF000FFB2039BCDF80090043760064CBFDF1B98
:101F0000FF18002319460D2228460397FFF7A6FB6A
:101F1000B9E700F00D030D2BDBD003AF002300F079
:101F20000F02194600972846FFF776FB002300971B
:101F300019460D222846FFF791FBA4E7B1285FD090
:101F4000B22800F0CC80B3287ED000F0FC03B42B84
:101F5000BFD000F007020132012342F400221946EB
:101F60002846FFF747FD00288DD0B2E73046FFF73F
:101F700057FF24020443B4F5004FAAD024010023E4
:101F8000A2B219462846FFF735FD0028A1D114F466
:101F9000004F18BF4FF0010875E7C24302F0070376
:101FA0004FF47F621A41010702F47F624FF0000391
:101FB00048BF42F4804219462846FFF71BFD00281F
:101FC0003FF461AF85E7C62851D0C7285AD000F04A
:101FD000F803C02B69D0C82875D0C9287FF479AF21
:101FE0003046FFF71DFF020300F00F0002F47022DD
:101FF0000130024366E7B8F1000F14D0002069E712
:102000003046FFF70DFF00283FF463AF10F0F003F8
:102010007FF45FAF024619462846FFF7EBFC002825
:102020003FF431AF55E703AC43460E2241460094DE
:102030002846FFF7F1FA0094284643460F2241460E
:10204000FFF70CFB404645E73046FFF7E9FE01038A
:1020500000F00F0001F47021421C01230A432846BE
:102060001946FFF7C7FC00283FF40DAF31E73046B3
:10207000FFF7D6FE010300F00F0001F47021421CAF
:102080000323EBE73046FFF7CBFE024600283FF480
:1020900020AF10F0F0037FF41CAF04212846FFF7B7
:1020A000A9FC00283FF4EFAE13E700F00F02013265
:1020B000032342F4202219462846FFF79BFC002800
:1020C0003FF4E1AE05E73046FFF7AAFE00F0F0026C
:1020D00000F00F031032013343EA0232F2E600232C
:1020E0000DF10C090D221946CDF800902846FFF796
:1020F00093FA3046FFF794FE02064FF002070CD524
:10210000039B00F07F00B840034430460393FFF781
:1021100087FE030607F10707F2D4039BCDF8009072
:1021200000F07F0403F50172BC40002314441946FB
:102130000D2228460394FFF791FAA4E610B5C36C6C
:1021400084B05A6803208DF80C00DC798DF80D40BE
:1021500012020833084601A901920293FFF78CFE90
:1021600004B010BD08B5FFF785FE806C08BD00BF48
:1021700008B5FFF77FFEC06CC37900EB8300083021
:1021800008BD00BF08B504F0AFFD00BF08B5FFF7FC
:10219000F9FF00BF704700BF844641EA000313F017
:1021A00003036DD1403A41D351F8043B40F8043B5E
:1021B00051F8043B40F8043B51F8043B40F8043B21
:1021C00051F8043B40F8043B51F8043B40F8043B11
:1021D00051F8043B40F8043B51F8043B40F8043B01
:1021E00051F8043B40F8043B51F8043B40F8043BF1
:1021F00051F8043B40F8043B51F8043B40F8043BE1
:1022000051F8043B40F8043B51F8043B40F8043BD0
:1022100051F8043B40F8043B51F8043B40F8043BC0
:1022200051F8043B40F8043B403ABDD2303211D360
:1022300051F8043B40F8043B51F8043B40F8043BA0
:1022400051F8043B40F8043B51F8043B40F8043B90
:10225000103AEDD20C3205D351F8043B40F8043B60
:10226000043AF9D2043208D0D2071CBF11F8013B5E
:1022700000F8013B01D30B8803806046704700BF24
:10228000082A13D38B078DD010F003038AD0C3F133
:102290000403D21ADB071CBF11F8013B00F8013B15
:1022A00080D331F8023B20F8023B7BE7043AD9D3D4
:1022B000013A11F8013B00F8013BF9D20B780370A9
:1022C0004B7843708B788370604670470000000045
:1022D00001F0FF01102A2BDB10F0070F08D010F8D7
:1022E000013B013A8B422DD010F0070F42B3F6D1DB
:1022F000F0B441EA012141EA014122F007047FF0F4
:1023000000070023F0E80256083C85EA010586EA4A
:10231000010685FA47F5A3FA87F586FA47F6A5FA86
:1023200087F68EB9EED1F0BC01F0FF0102F0070292
:1023300032B110F8013B013A83EA010313B1F8D13D
:102340000020704701387047002D06BF354603381E
:10235000073815F0010F07D1013015F4807F02BF57
:10236000013015F4C03F0130F0BC0138704700BFA8
:10237000000000000000000000000000000000005D
:1023800090F800F06DE9024520F007016FF0000CB5
:1023900010F0070491F820F040F049804FF000045D
:1023A0006FF00700D1E9002391F840F000F1080038
:1023B00082FA4CF2A4FA8CF283FA4CF3A2FA8CF370
:1023C0004BBBD1E9022382FA4CF200F10800A4FAD7
:1023D0008CF283FA4CF3A2FA8CF3E3B9D1E904232B
:1023E00082FA4CF200F10800A4FA8CF283FA4CF362
:1023F000A2FA8CF37BB9D1E9062301F1200182FA1C
:102400004CF200F10800A4FA8CF283FA4CF3A2FA21
:102410008CF3002BC6D0002A04BF04301A4612BA2F
:10242000B2FA82F2FDE8024500EBD2007047D1E932
:10243000002304F00305C4F100004FEAC50514F0C1
:10244000040F91F840F00CFA05F562EA05021CBF92
:1024500063EA050362464FF00004A9E780B590B037
:1024600000AF78600B46FB70FB78002B27D107F19B
:10247000240300221A605A609A60DA601A615A6175
:102480002D4A7B6852F833307B62012387F828306D
:10249000012387F829304FF0FF333B6307F1240312
:1024A000184603F047FE244A7B68DB0013440122F0
:1024B0001A717B68DB00204A1344FB6336E0FB782B
:1024C000012B31D107F10C0300221A605A609A6087
:1024D000DA601A615A61184A7B6852F83330FB603F
:1024E00001233B754FF0FF33BB6107F10C03184626
:1024F00003F090FE104A7B68DB00134402221A713D
:102500007B68292B0AD97B682C2B07D80A4A7B6861
:1025100052F833300121184603F0B4FE7B68DB002B
:10252000054A1344FB6301E00023FB63FB6B184681
:102530004037BD4680BD00BF8800002080B586B012
:1025400000AF78607B683B613B69002B0BD03B6937
:102550001B79012B07D13B691B68184603F0A0FECD
:102560000346FB7501E00023FB753B691B681B0AF2
:10257000DBB2FB603B691B68DBB2BB60FB68022B14
:1025800002D1BB68062B05D0FB68002B09D1BB68C4
:10259000042B06D1FB7D002B0CBF01230023DBB2F3
:1025A000FB75FB7D18461837BD4680BD80B586B0EB
:1025B00000AF78600B46FB707B687B617B69002B0A
:1025C0002FD07B691B79022B2BD17B691B681B0ADF
:1025D000DBB23B617B691B68DBB2FB603B69012BB3
:1025E00005D1FB68162B08D0FB68152B05D03B697D
:1025F000042B0FD1FB681A2B0CD17B691A68FB786E
:10260000012B14BF01230023DBB21946104603F04F
:1026100039FE06E07B691B68FA781146184603F01C
:1026200031FE00BF1837BD4680BD80B485B000AF15
:1026300078607B68FB60FB68002B0ED0FB681B7921
:10264000022B03D1FB6800221A7106E0FB681B799C
:10265000012B02D1FB6800221A7100BF1437BD465E
:102660005DF8047B704780B400AFFEE780B483B0B0
:1026700000AF78607B68013B032B0BD801A252F8B6
:1026800023F000BF95260000952600009526000047
:102690009526000000BFFEE770477047002000212C
:1026A00004460D46084804F045FB04F08DFB204627
:1026B000294601F05DFE0548002101F08DFF01F083
:1026C000E7FE04F043FB00006D6D0000D4970000AE
:1026D00080B584B000AFF860B9601346FB71BB6889
:1026E0001F2B05D90D4B0E4AFF210E4804F004FBA9
:1026F000FB68BA6853F8223023F0807323F4E06358
:10270000FA79120202F4E06243EA0201FB68BA6855
:1027100043F8221000BF1037BD4680BD349700003B
:10272000FC9700004097000080B483B000AF786051
:102730000B46FB707B68FA781A7000BF0C37BD46F9
:102740005DF8047B7047000080B584B000AF3B4665
:1027500000221A605A609A60DA60064B3B600223DE
:102760007B723B461946002003F056FB00BF103732
:10277000BD4680BD80F0FA0280B584B000AF074A44
:102780003B1D07CA83E807003B1D1946002003F0E4
:1027900091FB00BF1037BD4680BD00BF8897000089
:1027A00080B500AF2A210848FFF7BEFF00221221A2
:1027B0000648FFF78DFFFFF7C7FFFFF7DDFF04486F
:1027C00003F0CCFB00BF80BD00E007400090044058
:1027D000E497000080B582B000AF7860034801F054
:1027E000AFF900BF0837BD4680BD00BFD03A00201A
:1027F00098B500AF094B0A4A1A600A4B0A4A1C1DD9
:1028000013460FCB84E80F0001F0F0F90246054BA8
:102810001A60064B034A1A6000BF98BDD03A0020E8
:10282000D83A0020B03A0020D4970000C83A0020DF
:1028300080B586B002AF87ED010A38600223FB60E5
:10284000FFF7D6FF164801F06BF90346BB60154849
:1028500001F066F90346BB60002300930023FA6889
:102860001149124801F099F90346BB600023104A50
:102870000121104801F0D2F90346BB60D7ED017A7F
:102880009FED0D7A67EE877AFCEEE77A17EE901AE5
:10289000084801F0EAF900BF1037BD4680BD00BF0F
:1028A000D03A0020C83A0020BD280000D83A0020C5
:1028B000D52700008C3A002000007A4480B586B00D
:1028C00000AF7861184B1B681B68002B0CBF0123FD
:1028D0000023DBB21A46154B1A7011E03B4614492F
:1028E000184601F040F900F09BFA0F4B1B681B687B
:1028F000002B14BF01230023DBB21A460D4B1A70C4
:102900000A4B1B78DBB2002BE8D1084B00221A706F
:10291000786900F011F8002001F06FF900231846E3
:102920001837BD4680BD00BF109800000000002091
:10293000D03A0020C43A002080B582B000AF786061
:10294000074B01221A60074B00221A7001F054F85D
:10295000054801F0F5F8002318460837BD4680BD4C
:10296000EC3A002000000020C83A002080B586B074
:1029700000AF7861396101F00DFB00F0BCF80A4B43
:102980001B6800221A6000F0CBFD00209FED070AB3
:10299000FFF74EFF3B460649184601F0E4F80023D6
:1029A00018461837BD4680BD109800006F12833A54
:1029B000C83A002080B500AF002003F051FB00BFF3
:1029C00080BD80B500AF012003F04AFB00BF80BD91
:1029D00080B500AF022003F043FB00BF80BD80B58F
:1029E00000AF032003F03CFB00BF80BD80B500AF0B
:1029F000042003F035FB00BF80BD80B500AF05208B
:102A000003F02EFB00BF80BD80B500AF062003F0B1
:102A100027FB00BF80BD80B500AF072003F020FB7F
:102A200000BF80BD80B500AF082003F019FB00BFD8
:102A300080BD80B500AF092003F012FB00BF80BD50
:102A400080B500AF0A2003F00BFB00BF80BD80B54E
:102A500000AF0B2003F004FB00BF80BD80B500AFCA
:102A60000C2003F0FDFA00BF80BD80B500AF0D2043
:102A700003F0F6FA00BF80BD80B500AF0E2003F072
:102A8000EFFA00BF80BD80B500AF0F2003F0E8FA79
:102A900000BF80BD80B500AF002003F0F9FA00BF91
:102AA00080BD80B500AF002003F06CFF00BF80BD8B
:102AB00080B500AF012003F065FF00BF80BD80B589
:102AC00000AF022003F05EFF00BF80BD80B500AF05
:102AD000032003F057FF00BF80BD80B500AF042086
:102AE00003F050FF00BF80BD80B500AF052003F0AC
:102AF00049FF00BF80BD80B582B000AF03F0CAF8C7
:102B00000023FB7106E0FB79184603F07FFAFB799E
:102B10000133FB71FB79042BF5D9FFF741FE00BFB0
:102B20000837BD4680BD80B400AFFEE780B400AF7B
:102B3000FEE780B400AFFEE780B400AFFEE780B4EC
:102B400000AFFEE780B400AFFEE780B400AFFEE761
:102B500080B400AFFEE780B400AFFEE780B400AF02
:102B6000FEE780B400AFFEE780B400AFFEE780B4BC
:102B700000AFFEE780B400AFFEE780B400AFFEE731
:102B800080B400AFFEE780B400AFFEE780B400AFD2
:102B9000FEE780B400AFFEE780B400AFFEE780B48C
:102BA00000AFFEE780B400AFFEE780B400AFFEE701
:102BB00080B400AFFEE780B400AFFEE780B400AFA2
:102BC000FEE780B400AFFEE780B400AFFEE780B45C
:102BD00000AFFEE780B400AFFEE780B400AFFEE7D1
:102BE00080B400AFFEE780B400AFFEE780B400AF72
:102BF000FEE780B400AFFEE780B400AFFEE780B42C
:102C000000AFFEE780B400AFFEE780B400AFFEE7A0
:102C100080B400AFFEE780B400AFFEE780B400AF41
:102C2000FEE780B400AFFEE780B400AFFEE780B4FB
:102C300000AFFEE780B400AFFEE780B400AFFEE770
:102C400080B400AFFEE780B400AFFEE780B400AF11
:102C5000FEE780B400AFFEE780B400AFFEE780B4CB
:102C600000AFFEE780B400AFFEE780B400AFFEE740
:102C700080B400AFFEE780B400AFFEE780B400AFE1
:102C8000FEE780B400AFFEE780B400AFFEE70000CF
:102C900090B400AF154B0022DA76144B00221A775D
:102CA000134BD3E90C34114AC2E902340F4B012211
:102CB0001A760E4B01225A770C4B00225A760B4B98
:102CC00000229A76094B00229A77084B0122DA7784
:102CD000064B002283F82220054BD3E91634034A21
:102CE000C2E9003400BFBD4690BC7047F03A0020F6
:102CF0000800002090B400AF154B0022DA76144B88
:102D000000221A77134BD3E90834114AC2E902347E
:102D10000F4B01221A760E4B01225A770C4B0022E0
:102D20005A760B4B00229A76094B01229A77084B70
:102D30000022DA77064B002283F82320054BD3E9E3
:102D40001434034AC2E9043400BFBD4690BC704746
:102D5000F03A00200800002080B582B000AF786013
:102D60007B685B68012B08D17B681B7A002B04D041
:102D70007B681B691846FFF758FC00BF0837BD4643
:102D800080BD80B582B000AF78607868FFF7E4FF5F
:102D900000BF0837BD4680BD80B582B000AF786007
:102DA0007B681B78002B05D17B6801221A7078683C
:102DB000FFF7E7FF00BF0837BD4680BD80B582B092
:102DC00000AF78607B685B68012B08D17B681B7A59
:102DD000002B04D07B681B691846FFF726FC00BF58
:102DE0000837BD4680BD80B582B000AF7860786896
:102DF000FFF7E4FF00BF0837BD4680BD80B582B055
:102E000000AF78607B681B78002B05D17B680122BE
:102E10001A707868FFF7E7FF00BF0837BD4680BD2E
:102E2000B0B582B000AFB44BD3E90601B34BD3E9E0
:102E300002341A462346FEF757F80346002B05D105
:102E4000AE4BD3E90234AC4AC2E90634AA4B1B6943
:102E50001846FFF773FB0346FB71A74BD3E90E013E
:102E6000A64BD3E900341A462346FEF73DF8034645
:102E7000002B05D1A14BD3E900349F4AC2E90E349F
:102E80009D4B1B6B1846FFF759FB0346BB719A4BD2
:102E9000D3F86C31B3F1FF3F06D0974BD3F86C31C8
:102EA0000133954AC2F86C31934B93F87031002B83
:102EB0001FD1914B012283F870218F4B042283F89C
:102EC00071218F4B002283F823208D4B002283F841
:102ED00021208B4B002283F82220894A4FF00003E7
:102EE0004FF00004C2E90234854B012283F8202010
:102EF00059E2814B93F87131013B052B00F22E8290
:102F000001A252F823F000BF212F00003F2F000044
:102F10007530000009310000B3310000E5320000D7
:102F2000774B012283F82120734B022283F8712111
:102F3000714B0022C3F86C21FFF7DCFE33E2704BCB
:102F40000022DA766E4B00221A776D4B01221A7638
:102F50006B4B01225A776A4B00225A76684B00224B
:102F60009A76674B01229A77654B0022DA77644B99
:102F7000002283F82320604BD3F86C515F4BD3E9D8
:102F800004341A4623465AA1D1E90001FDF76EFE2A
:102F900003460C4618462146584BD3E90A341A46D4
:102FA0002346FDF781FB03460C4644EC173BB0EE8D
:102FB000470AF0EE670A03F00FFE54EC103B184688
:102FC0002146FDF7C3FF03469D4224D34A4B03220B
:102FD00083F87121484B0022C3F86C21484B002232
:102FE0001A76474B01225A77454B0122DA76444B39
:102FF00000229A77424B00225A76414B00229A7661
:103000003F4B0022DA773E4B00221A773C4B0122DD
:1030100083F82320B1E1384BD3F86C41374B93ED63
:10302000107BB0EE470AF0EE670A03F0D5FD53ECD3
:10303000102B10461946FDF789FF03469C42C0F04D
:103040009C812E4BD3E91E014FF000022D4BFDF762
:103050004BFF0346002B00D18FE1FB79002B00F0E2
:103060008C81254B012283F87121254B012283F8A5
:10307000212082E1224B00221A76214B01225A772D
:103080001F4B0122DA761E4B00229A771C4B00223E
:103090005A761B4B00229A76194B0022DA77184B8E
:1030A00000221A77164B012283F82320124BD3F803
:1030B0006C41124B93ED0A7BB0EE470AF0EE670AC3
:1030C00003F08AFD53EC102B10461946FDF73EFF26
:1030D00003469C42C0F05381074B022283F87121C2
:1030E000054B0022C3F86C21FFF704FE47E100BF47
:1030F00000000000004CED40183B002008000020BC
:10310000F03A002000000840A14B002283F8232061
:103110009F4B002283F821209D4B002283F8222020
:103120009B4B012283F820209A4BD3E91E014FF0DC
:1031300000024FF08043FDF7D7FE0346002B0AD173
:10314000944BD3E91E014FF00002934BFDF7CCFEE8
:103150000346002B0AD0914B022283F871218F4B3A
:103160000022C3F86C21FFF7C5FD1CE1894BD3E9B0
:103170001E014FF000024FF00003FDF7B5FE0346BD
:10318000002B0BD1834BD3E91E014FF00002844B7F
:10319000FDF7AAFE0346002B00D104E17F4B052278
:1031A00083F871217D4B0022C3F86C21FFF770FD7D
:1031B000F9E0774B0022DA76754B00221A77744BD0
:1031C00001221A76724B01225A77714B00225A76ED
:1031D0006F4B00229A766E4B00229A776C4B01223D
:1031E000DA776B4B002283F822206C4BD3F86C51BA
:1031F000684BD3E904341A46234663A1D1E90001A0
:10320000FDF734FD03460C4618462146614BD3E9D1
:103210000E341A462346FDF747FA03460C4644ECA3
:10322000173BB0EE470AF0EE670A03F0D5FC54EC0A
:10323000103B18462146FDF789FE03469D4224D3E4
:10324000564B062283F87121544B0022C3F86C219F
:103250004F4B00221A764E4B01225A774C4B0022DC
:10326000DA764B4B00229A77494B00225A76484B2C
:1032700000229A76464B0022DA77454B01221A77D4
:10328000434B012283F822207BE0444BD3F86C416E
:10329000404B93ED127BB0EE470AF0EE670A03F065
:1032A0009BFC53EC102B10461946FDF74FFE0346CE
:1032B0009C4266D3374BD3E91E014FF00002384BD6
:1032C000FDF712FE0346002B00D15AE0BB79002B1C
:1032D00057D0324B072283F871212D4B012283F8FE
:1032E00021204EE02A4B00221A76294B01225A77E0
:1032F000274B0022DA76264B00229A77244B0022B5
:103300005A76234B00229A76214B0022DA77204B03
:1033100001221A771E4B012283F822201F4BD3F87B
:103320006C411C4B93ED0E7BB0EE470AF0EE670A42
:1033300003F052FC53EC102B10461946FDF706FE25
:1033400003469C422ED3154B052283F87121134B63
:103350000022C3F86C21FFF79BFC23E00C4B0122F9
:1033600083F821200D4B052283F871210B4B00229D
:10337000C3F86C21FFF78CFC15E000BF13E000BF21
:1033800011E000BF0FE000BF00000000004CED4066
:10339000F03A00200800002000000840183B002000
:1033A0000000F03F00BF5C4B1A6D5C4B1B7E194662
:1033B0001046FFF7FBF8584B5C6E584BD3E9000101
:1033C00001231D464FF000024FF00003FDF78CFD76
:1033D0000346002B01D000231D46EBB219462046C0
:1033E000FFF7E4F84C4B9A6F4C4B5B7E1946104646
:1033F000FFF7DCF8484BD3F88C40484BD3E9020187
:1034000001231D464FF000024FF00003FDF76CFD55
:103410000346002B01D000231D46EBB2194620467F
:10342000FFF7C4F83C4BD3F8A0403C4BD3E9040170
:1034300001231D464FF000024FF00003FDF754FD3D
:103440000346002B01D000231D46EBB2194620464F
:10345000FFF7ACF8304BD3F8B420304B9B7E1946C5
:103460001046FFF7A3F82C4BD3F8C8202B4BDB7E7C
:1034700019461046FFF79AF8274BD3F8DC20274B64
:103480001B7F19461046FFF791F8234BD3F8F02025
:10349000224B5B7F19461046FFF788F81E4BD3F886
:1034A00004211E4B9B7F19461046FFF77FF81A4BED
:1034B000D3F81821194BDB7F19461046FFF776F831
:1034C000154BD3F82C21154B93F820301946104694
:1034D000FFF76CF8104BD3F84021104B93F82130D4
:1034E00019461046FFF762F80B4BD3F854210B4BEB
:1034F00093F8223019461046FFF758F8064BD3F8D8
:103500006821064B93F8233019461046FFF74EF812
:1035100000BF0837BD46B0BD183B0020F03A002080
:1035200090B583B000AFB94B01221A70B74B00229F
:103530005A60B64A4FF00003B54CC2E90634B34BAB
:1035400000221A70B34BD3E90234B04AC2E9063400
:10355000AE4B7B60AD4B00221A72AC4B01225A601D
:1035600000210020FEF77AFF02467B681A61A74B14
:1035700001221A72A54B012283F82020A34B0022BE
:103580005A62A24A4FF00003A14CC2E90E349F4B8D
:10359000002283F820209F4BD3E900349B4AC2E9E4
:1035A0000E349D4B7B60994B002283F82820974B6B
:1035B00001225A6200210120FEF750FF02467B687B
:1035C0001A61924B012283F82820904B012283F844
:1035D00040208E4B00225A648C4B002283F84020FE
:1035E0008E4B3B60894B002283F84820874B012299
:1035F0005A6401210220FEF731FF02463B681A613E
:10360000824B012283F84820804B012283F854200A
:103610007E4B00229A657D4B002283F85420804B1C
:103620003B607A4B002283F85C20784B01229A653C
:1036300001210320FEF712FF02463B681A61734B1B
:10364000012283F85C20714B012283F868206F4BC4
:103650000022DA666D4B002283F86820714B3B60D4
:103660006A4B002283F87020684B0122DA66012140
:103670000420FEF7F3FE02463B681A61634B012209
:1036800083F87020614B012283F87C205F4B00227D
:10369000C3F880205D4B002283F87C20624B3B60A6
:1036A0005A4B002283F88420584B0122C3F8802013
:1036B00001210520FEF7D2FE02463B681A61534BFA
:1036C000012283F88420514B012283F890204F4B34
:1036D0000022C3F894204D4B002283F89020534BD6
:1036E0003B604A4B002283F89820484B0122C3F8E4
:1036F000942001210620FEF7B1FE02463B681A61C4
:10370000424B012283F89820404B012283F8A420E9
:103710003E4B0022C3F8A8203C4B002283F8A42093
:10372000434B3B60394B002283F8AC20374B0122DE
:10373000C3F8A82001210720FEF790FE02463B684F
:103740001A61324B012283F8AC20304B012283F8FE
:10375000B8202E4B0022C3F8BC202C4B002283F84B
:10376000B820344B3B60294B002283F8C020274B04
:103770000122C3F8BC2001210820FEF76FFE02469B
:103780003B681A61214B012283F8C0201F4B0122A4
:1037900083F8CC201D4B0022C3F8D0201B4B002205
:1037A00083F8CC20244B3B60184B002283F8D420B4
:1037B000164B0122C3F8D02001210920FEF74EFE4E
:1037C00002463B681A61114B012283F8D4200F4B4B
:1037D000012283F8E0200D4B0022C3F8E4200B4BBC
:1037E000002283F8E020154B3B60084B002283F851
:1037F000E820064B0122C3F8E42001210A20FEF74D
:103800002DFE02463B681A611AE000BF183B0020FB
:103810000000F0BF08000020383B0020583B00208B
:103820006C3B0020803B0020943B0020A83B002004
:10383000BC3B0020D03B0020E43B0020F83B0020B4
:10384000664B012283F8E820644B012283F8F420C0
:10385000624B0022C3F8F820604B002283F8F4206A
:103860005F4B3B605D4B002283F8FC205B4B0122E9
:10387000C3F8F82001210B20FEF7F0FD02463B685B
:103880001A61564B012283F8FC20544B012283F825
:103890000821524B0022C3F80C21504B002283F820
:1038A0000821504B3B604D4B002283F810214B4BBD
:1038B0000122C3F80C2101210C20FEF7CFFD0246A6
:1038C0003B681A61454B012283F81021434B0122CA
:1038D00083F81C21414B0022C3F820213F4B0022DA
:1038E00083F81C21404B3B603C4B002283F8242191
:1038F0003A4B0122C3F8202101210D20FEF7AEFD35
:1039000002463B681A61354B012283F82421334B70
:10391000012283F83021314B0022C3F834212F4B90
:10392000002283F83021314B3B602C4B002283F87E
:1039300038212A4B0122C3F8342101212A20FEF725
:103940008DFD02463B681A61244B012283F8382121
:10395000224B012283F84421204B0022C3F8482146
:103960001E4B002283F84421214B3B601B4B00225D
:1039700083F84C21194B0122C3F8482101212B2047
:10398000FEF76CFD02463B681A61144B012283F876
:103990004C21124B012283F85821104B0022C3F80E
:1039A0005C210E4B002283F85821124B3B600B4BDD
:1039B000002283F86021094B0122C3F85C21012118
:1039C0002C20FEF74BFD02463B681A61034B012297
:1039D00083F8602100BF0C37BD4690BD183B002026
:1039E0000C3C0020203C0020343C0020483C0020BF
:1039F0005C3C0020703C002080B500AF1A48FFF707
:103A0000CBF91A48FFF7C8F91948FFF7F7F9194831
:103A1000FFF7F4F91848FFF7F1F91848FFF7EEF946
:103A20001748FFF7EBF91748FFF7E8F91648FFF7D3
:103A3000E5F91648FFF7E2F91548FFF7DFF91548F1
:103A4000FFF7DCF91448FFF7D9F91448FFF7D6F966
:103A50001348FFF7D3F91348FFF7D0F91248FFF7DF
:103A6000CDF900BF80BD00BF183B0020383B0020CF
:103A7000583B00206C3B0020803B0020943B002002
:103A8000A83B0020BC3B0020D03B0020E43B0020B2
:103A9000F83B00200C3C0020203C0020343C00205F
:103AA000483C00205C3C0020703C002084B080B585
:103AB00082B000AF07F1100C8CE80F003B69796A07
:103AC000184600F0DBFF03467B607B68184608372A
:103AD000BD46BDE8804004B0704784B080B500AFFB
:103AE00007F1080C8CE80F00BB68F969184600F074
:103AF000E5FF03461846BD46BDE8804004B0704768
:103B000080B582B000AF786039607B684FF0FF32DB
:103B10003968184600F0E0FF78680837BD4680BD78
:103B200080B485B000AF78607B6801225A600123C1
:103B3000FB60FB6818461437BD465DF8047B704790
:103B400080B584B002AF78607B681B687A68526881
:103B500001921A6900920FCBFFF7A8FF034618469F
:103B60000837BD4680BD80B584B002AF786039604B
:103B70003B681B683A68526801921A6900920FCB41
:103B8000FFF7ABFF3B685A687B6811461846FFF7A2
:103B9000B7FF78680837BD4680BD80B586B000AFF6
:103BA000F860B9607A603B60FB68BA685A60FB688D
:103BB0007A689A60FB680122DA603A68FB681A61E9
:103BC000FB680433396A184600F006FD0246FB68BC
:103BD0001A60FB681B68002B14BF01230023DBB2B3
:103BE0007B617B6918461837BD4680BD80B500AF44
:103BF00000F040FD0346184680BD80B584B000AF9C
:103C0000786000F037FD0346FB60F86800F03EFD89
:103C10000346BB6000BF1037BD4680BD80B586B08F
:103C200000AFF8607A603B600B46FB72FB6803F103
:103C30000C02FB689A60FB687A685A60FB68043380
:103C4000F97A3A68184600F015FE0246FB681A60D9
:103C5000FB681B68002B14BF01230023DBB27B61D0
:103C60007B6918461837BD4680BD80B584B000AF6B
:103C7000786039607B681B683968184600F02CFE54
:103C80000346FB60FB6818461037BD4680BD000048
:103C900080B584B000AF7860114B1B68002B02D157
:103CA0000F4B104A1A600E4B1B68FB600C4B1A68D6
:103CB0007B6813440C4A934207D903F041F802464B
:103CC0000C2313604FF0FF3306E0054B1A687B6846
:103CD0001344034A1360FB6818461037BD4680BD85
:103CE000943C00200000FF1F0000002080B489B039
:103CF00000AF284BFB60284A284B9A4216D000237D
:103D0000FB610AE0254AFB6952F823202249FB693E
:103D100041F82320FB690133FB61FB689B08FA69CA
:103D20009A42EFD31E4B1C4A9A6002E01C4B1B4A7E
:103D30009A601C4BBB611C4B7B611C4BBB60BA681F
:103D40007B69D31AFB6107E07A69531C7B61BB690D
:103D5000591CB96112781A70FB695A1EFA61002B5E
:103D6000F2D1134B3B61134B7B607A683B69D31AEA
:103D7000FB6104E03B695A1C3A6100221A70FB693E
:103D80005A1EFA61002BF5D100BF2437BD465DF8FD
:103D9000047B7047000000000000000000000000ED
:103DA00000ED00E0000000207CA2000034AE000026
:103DB000B80B0020003E002080B400AF6B4BD3F85E
:103DC00088306A4A43F47003C2F88830684B4CF27A
:103DD0002052DA81664B4DF62812DA81644B4FF49B
:103DE000E9721A80634B1B78DBB203F00103002BEE
:103DF0000FD0614B9B78DBB203F00803002B2ED071
:103E00005D4B9B78DBB25C4A43F00803DBB29370F6
:103E100025E05A4B03F581531C331B68574943F087
:103E2000005201F581531C331A60554B1B6903F492
:103E30008073002B13D1524B1B6923F47C53504ADF
:103E400043F4407313614E4B1B694D4A43F4807336
:103E500013614B4B1B694A4A23F400731361494BAE
:103E60002A221A70454B03F5825304334FF08A72AD
:103E70001A60424B1B6823F44023404A43F400235A
:103E800013603E4B03F5805304331B6823F4403327
:103E90003A4943F4803201F5805304331A60374BBA
:103EA00003F5815318331B68344943F4007201F55C
:103EB000815318331A60344B9B6C334A23F0807360
:103EC00023F4E0639364314B00221A722F4B5B782A
:103ED000DBB223F06003DBB22C4A43F02003DBB2F9
:103EE00053702B4B80221A70284B00221A73274BD9
:103EF000BA221A7000BF254B9B79DBB203F0100386
:103F0000002BF8D1214BDB78DBB2204A03F01F03F2
:103F1000DBB2D3701D4B13221A711C4B18225A713D
:103F20001A4B5B79DBB2194A43F04003DBB25371A1
:103F300000BF164B9B79DBB203F04003002BF8D097
:103F4000124B1B78DBB2114A03F03F03DBB2137054
:103F500000BF0E4B9B79DBB203F00C030C2BF8D1A6
:103F600000BFBD465DF8047B704700BF00ED00E078
:103F70000020054000F0074000D0074000700440DA
:103F800000D0034000E0074000900440004006409D
:103F90000050064080B483B000AF964B1B78DBB274
:103FA00003F0C003002B40F0D280924B5B79DBB270
:103FB00003F04003002B40F0AD808E4B1B78DBB24A
:103FC00003F00403002B4ED18A4B1B7BDBB203F0C2
:103FD0000303002B02D0012B03D006E0864B7B604D
:103FE00006E04FF400437B6002E0844B7B6000BF3F
:103FF000804B5B78DBB203F03003002B23D07D4B8A
:104000001B7BDBB203F00303012B1CD0794B1B7825
:10401000DBB203F03803302B05D0382B07D14FF437
:10402000C0637B800EE04FF4A0637B800AE0714B9D
:104030001B78DBB2DB0803F00703202202FA03F34C
:104040007B8000BF09E06B4B1B78DBB2DB0803F021
:104050000703012202FA03F37B807B887A68B2FBB4
:10406000F3F37B6002E04FF400437B60614BDB784D
:10407000DBB203F0E003602B29D0602B06D8202BA5
:1040800017D0402B1CD0002B0CD09DE0A02B2CD0A7
:10409000A02B02D8802B21D096E0C02B2CD0E02B77
:1040A00031D091E07A6813469B001344DB017B60BA
:1040B0008AE07A6813469B0013441B027B6083E00E
:1040C0007A6813461B019B1ADB017B607CE07A68EF
:1040D00013469B0013445B027B6075E07B684FF4E2
:1040E000377202FB03F37B606EE07B684FF4B762CC
:1040F00002FB03F37B6067E07B6840F6950202FBFE
:1041000003F37B6060E07B6840F6713202FB03F3EF
:104110007B6059E0374B1B79DBB29BB203F01F0386
:104120009BB201337B807B88334AB2FBF3F37B6025
:10413000304B5B79DBB29BB203F01F039BB21833A9
:104140007B807A887B6802FB03F37B603CE0294B31
:104150001B78DBB203F0C003402B1AD1254B5B78F0
:10416000DBB203F00103002B03D14FF400437B606B
:104170002AE0204B1B7ADBB25B0803F00703012225
:1041800002FA03F37B807B881D4AB2FBF3F37B606A
:104190001AE0184B1B78DBB203F0C003802B22D14E
:1041A000144B1B7BDBB203F00303002B02D0012B6B
:1041B00003D006E0104B7B6006E04FF400437B60C9
:1041C00002E00E4B7B6000BF0E4B03F582530433BD
:1041D0001B681B0F03F00F0301337A68B2FBF3F384
:1041E000094A136000E000BF0C37BD465DF8047B50
:1041F000704700BF0040064080F0FA02006CDC020D
:1042000000093D00007004400002002000B5DFF806
:104210000CC000DFDFF808C000DFFEE77D450000CE
:10422000954500002DE9F041334C237853B1334BD1
:104230001B68FF229A70324A0020012310702370FD
:10424000BDE8F0812F4B3048196800F055FD10B1E2
:104250008520BDE8F08101F005FC284B21781B6822
:10426000FF229A700029E6D1284A1368002B40D01B
:10427000556845B12A78002A39D1191D890089B2BB
:10428000284600F0F9FD224B224A1E68156066B3ED
:104290005D68EA1C062A28D8DF68B7B139461A4893
:1042A00000F038FD804600B3291D41EA0721304661
:1042B0000023424601F06CFA054670B941461248A7
:1042C00000F050FD144B1D60B5E7291D30463B46FC
:1042D0003A4601F05DFA054638B1104B104A013DEF
:1042E00053F82550AB6A5A63ECE70025EAE70D4620
:1042F000C9E71D46C7E700BF583D00209C3D002090
:10430000593D0020B0970000902E0020C897000073
:10431000B8970000843A0020603A0020543A002008
:104320000D42000038B5104C207808B1002038BD8F
:104330000E4D2B6893F8241001F0AEF92B68DA7853
:10434000FF2A08D06A68094952B101F001FC012333
:104350002370002038BD9A6A203282F30988F1E781
:1043600081E80C00F1E700BF593D00209C3D002092
:104370002DE9F041EFF3058414B18220BDE8F0810E
:10438000EFF31484E40704D5DFF800C100DFBDE8D3
:10439000F081334C237853B1324B1B68FF229A7063
:1043A000314A0020012310702370BDE8F0812F4BAB
:1043B0002F48196800F0A0FC10B18520BDE8F081FD
:1043C00001F050FB274B21781B68FF229A700029CF
:1043D000E6D1284A1368002B40D0556845B12A78A9
:1043E000002A39D1191D890089B2284600F044FD00
:1043F000214B224A1E68156066B35D68EA1C062AD6
:1044000028D8DF68B7B13946194800F083FC8046E8
:1044100000B3291D41EA072130460023424601F03E
:10442000B7F9054670B94146114800F09BFC144BA2
:104430001D60B5E7291D30463B463A4601F0A8F914
:10444000054638B10F4B104A013D53F82550AB6A71
:104450005A63ECE70025EAE70D46C9E71D46C7E7C2
:10446000583D00209C3D0020593D0020B0970000A1
:10447000902E0020C8970000B8970000843A0020D2
:10448000603A0020543A00200D420000254200000E
:1044900010B588B0EFF3058414B1822008B010BDC8
:1044A000EFF3148404F00304022C1DD0032C14D069
:1044B000012C16D008AC84F309880F4C2478E4074B
:1044C00016D5022484F31488BFF34F8FBFF36F8F88
:1044D000DFF828C000DF08B010BD074C2478E407DF
:1044E000F6D5FF2008B010BD034C2478E407EFD4C4
:1044F000032484F31488E7E7A09700002543000015
:10450000002833D0F8B5066876B34768FB1C062B45
:104510002AD8C26804460D46BAB11146144800F0C4
:10452000F9FB064600B36268E1682068043242EA9B
:1045300001212B46324601F02BF9044660B9314681
:104540000B4800F00FFC2046F8BD0B463046391DE5
:1045500001F01EF9044638B1013C064B064A53F8F7
:104560002400836A5A63F8BD0020F8BD002070471C
:10457000902E0020543A00200D42000008B501F0B2
:1045800083F818B10138024B53F8200008BD00BF72
:10459000543A002098B1830711D103787BB9C18CBC
:1045A00010B571B9C0780C4601F07AF9FF280ED029
:1045B0001CB12146074800F0D5FB002010BD80202B
:1045C0007047C46AC07801F06BF9FF28F0D18120F0
:1045D00010BD00BF902E0020F8B5EFF305846CBB32
:1045E000EFF31484E40702D41D4C24781CB1DFF8E7
:1045F00080C000DFF8BD08B30668FEB14768FB1C49
:10460000062B1BD8C2680D460446CAB11146154890
:1046100000F080FB064688B16268E16820680432D9
:1046200042EA01212B46324601F0B2F8044678B93D
:1046300031460C4800F096FB2046F8BD0020F8BD3E
:104640000B463046391D01F0A3F804460028F5D08A
:10465000601E054B054A53F82000836A5A63F8BD73
:10466000593D0020902E0020543A00200D420000B9
:104670000145000010B5EFF305841CB9DFF808C050
:1046800000DF10BD002010BD7D45000010B5EFF328
:1046900005840CB1822010BDDFF804C000DF10BD1E
:1046A0009545000098B130B404689CB143689BB153
:1046B00001290DD8094C246864B11C7944B901253D
:1046C00058611C6059711A611D71184630BC7047E1
:1046D0000020FBE72046F9E71846F7E7603A00209C
:1046E000820703D110B119B9862070478020704726
:1046F000F8B52B4B1A68002312F1FF3643F1FF3750
:1047000004464FF47A70E0FB016730463946FCF707
:104710003DFC2379012B10D0022B0CD1214D2B68AD
:104720004BB19C4237D0194602E0944226D0114644
:104730000A68002AF9D18120F8BD1A4DE0600222F2
:104740002B6822715BB19968884204D20EE09168AF
:1047500081420DD813461A68401A002AF7D1002268
:10476000A0602260A3B11C600020F8BD1A4600239F
:10477000A06091682260081A9060F3E722680A60DE
:104780002268002ADED09668A16831449160D9E79A
:104790002C601846F8BD22682A601346F1E700BF76
:1047A000A49700005C3D0020830704D130B1436929
:1047B000016918687047002001467047014670473C
:1047C0002DE9F04F294F3C6883B054B3A668DFF859
:1047D000A080013EA660B9464FF0000A0EBBD8F893
:1047E000003025683D6023B193F800B0BBF1010FA4
:1047F00002D00420FDF73AFF1846019300F09EFB1B
:10480000019B0028F5D01846214600F09BFB6379F8
:10481000012B09D084F804B01DB1AE682C46002EDF
:10482000DDD003B0BDE8F08FD9F80000E26858B1E0
:104830008168914204D90DE0996891420CD81846DC
:104840000368521A002BF7D1C4F800A0A26050B13F
:104850000460E1E703463046A260996823608A1A43
:104860009A600028F4D13C60D6E700BF5C3D002090
:10487000843A002030B5EFF3058404BBEFF31484D1
:10488000E40702D4114C24781CB1DFF848C000DFE3
:1048900030BD98B10368A3B1436893B101290CD826
:1048A0000B4D2D687DB11D793DB9012459711C71E5
:1048B00058611D601A61184630BD204630BD002089
:1048C00030BD184630BD284630BD00BF593D0020E0
:1048D000603A0020A546000010B5EFF305840CB146
:1048E000822010BDDFF804C000DF10BDE1460000EB
:1048F00008B50C4E3568EFF305844FF0FF312846BC
:10490000002CF8D1DFF820C000DF1028F2D10846D3
:10491000DFF818C000DF04460028EBD00846A047A7
:10492000E8E700BF843A0020014B0000A9470000DF
:1049300078B183070DD103785BB90B0C1B0443B925
:1049400010B50B46048BC17898B200F015FD2046D7
:1049500010BD4FF00040704778B183070DD1037848
:104960005BB90B0C1B0443B910B50B46048BC17823
:1049700098B200F02DFD204610BD4FF0004070476A
:104980002DE9F0414FEA10484FEA0848B8F1000F0E
:1049900037D10D46044698B180B2002937D10122A3
:1049A00000F0C4FC02284FD0002D0CBF0023402390
:1049B00000242546184641462A462B46BDE8F0818C
:1049C000002938D04B1C4CD0294B994244D8294B54
:1049D0001A684FF6FE714FF47A73501E03FB0505FB
:1049E000B5FBF2F58D423AD900224FF6FF7000F088
:1049F0009DFC02282BD1204B1A680823B2F81A809C
:104A0000D6E7002186200A460B46BDE8F0814A1C05
:104A10002AD0174B99421CD8164B1E684FF47A7255
:104A2000731E4FF6FE7102FB0533B3FBF6F38B42A8
:104A3000B5D899B2B3E742464FF6FF7000F076FC66
:104A40000228D8D04346B3E7A0460823B0E7402366
:104A5000AEE74FF6FE71A2E74FF6FE71C4E7A9B2CA
:104A6000C2E74FF6FF71BFE74FF6FF7197E700BF50
:104A700000093D00A49700009C3D002070B5EFF3B5
:104A800005851DB9DFF830C000DF70BD044678B180
:104A900083070DD103785BB90B0C1B040E463BB9A1
:104AA0002346248BD978B0B200F09EFC204670BD1E
:104AB0004FF0004070BD00003149000010B5EFF329
:104AC00005841CB9DFF80CC000DF10BD4FF00040BA
:104AD00010BD00005949000070B50446EFF305858C
:104AE00045B908461146DFF814C000DF84E8070026
:104AF000204670BD82230360204670BD81490000BE
:104B0000F0B5044685B0002836D00378012B05D0D7
:104B1000002180200A460B4605B0F0BD03460C4636
:104B200081B90A4602A900F0B5F901282DD0002468
:104B3000264627461024029D2046294632463B46FB
:104B400005B0F0BD4A1C28D0154A91421AD8154A22
:104B500010684FF47A75411E4FF6FE7205FB04147F
:104B6000B4FBF0F1914216D9184602A900F092F96F
:104B70000128DCD1402109E080202146224623463D
:104B800005B0F0BD4FF6FE72EEE721460024264642
:104B900027460C46CFE78AB2E6E74FF6FF72E3E717
:104BA00000093D00A49700002DE9F0478046C08C25
:104BB000244B80088A4640D0D3F800900746D8F8A6
:104BC0002C6006EB8704630748BF043C4FF08073FA
:104BD000A4F1400544F8043C44F808AC28463822C7
:104BE000002102F0C9FBD8F81C3044F8203C19F031
:104BF000805FC8F82850C8F830A01AD0112F18D9F3
:104C0000A7F110004008431E0CD02A464FF0CC31CB
:104C1000013B42F8041C42F8081DF9D1C000C0F164
:104C2000080005442B1F9E423CBF4FF0CC3345F893
:104C3000043C054B3360BDE8F0871B68C3F38D0768
:104C40009946BCE798970000A52E5AE290F82520D7
:104C5000836A12B920331960704760331960704756
:104C600010B490F82540836A2CB9203383E80600FD
:104C70005DF8044B7047603383E806005DF8044B31
:104C8000704700BF084B1B68DA0107D5074B1B684C
:104C9000DB0703D5064B1B68002B00DB7047054B79
:104CA00001221A70704700BFFCED00E0800E00E0AA
:104CB000000E00E0603D002010B4094C2268084B53
:104CC000002AFBD0026B1A601A68054C002AFBD040
:104CD000C37843EA012189B221805DF8044B704713
:104CE0007C0000E003490B68024A002BFBD0C0B2F5
:104CF000107070477C0000E0034648B1072907D9CF
:104D000004390022084418605A5010465A6070470F
:104D10000120704718B3F9B10B3110B4036821F0CA
:104D2000030102E018461B685BB144681A1A121BA3
:104D30009142F7D84CB102190351516002F10803B6
:104D4000026018465DF8044B704700F108034160AB
:104D50005DF8044B184670470B46184670470346EB
:104D6000FBE700BFD0B1C9B110B4A1F10804A04263
:104D700016D0036823B90DE01A68184652B11346DD
:104D80009C42F9D160B151F8083C036000205DF805
:104D9000044B704701205DF8044B704701207047B9
:104DA00000206060F3E700BF002A30B41FDB03324D
:104DB00022F003020C24BAB113198B4214D8044414
:104DC00001448D1AA3189D4204604160826015D38E
:104DD000002100E003469818854263501144F9D23F
:104DE0000020186030BC7047012030BC704722F0B2
:104DF0000042073222F007021024DCE72346EFE7E7
:104E0000EFF3108372B6026803F001030AB1116870
:104E1000016003B962B61046704700BF81420DD3EE
:104E2000436899420AD2EFF3108372B602680A60AF
:104E3000016013F0010003D162B670470120704792
:104E400000207047426882B110B500F01DF9044699
:104E500000F034FA012161702046FFF7F7FE214689
:104E60000448BDE8104000F0E7B8428801324280B3
:104E7000704700BF683D00201039002389080122D7
:104E8000C1810270437083704360038143818381D9
:104E9000704700BF70B585890446CDB14389C2898A
:104EA000181D01339BB254F8200008609A426381B8
:104EB00004BF00236381636813B16378022B1FD0A2
:104EC000EFF3108372B6013DA58162B6002070BD7C
:104ED00016465AB143685BB1174B196800F0ACF83D
:104EE0003046082100F0A8FB012070BD012070BDF4
:104EF000114A126842600121536090604170EFE7EF
:104F0000204600F0C1F800210546FFF79FFE2389E7
:104F1000E289E869191D01339BB29A4244F82100E5
:104F2000238104BF00232381284600F0C7F92846C7
:104F300000F044FB002070BD9C3D0020C2898089A8
:104F4000101A704708B500F0CFF9BDE8084000F02E
:104F500085BA00BF426870B50346002A4FD0467834
:104F6000022E0D46044625D0032E02D0012E10D06D
:104F700070BD0846FFF744FF05460028F8D02046DC
:104F800000F082F829460446FFF760FE01236370B3
:104F900007E000F079F804462A461021FFF760FE8A
:104FA0006670204600F08AF921462248BDE870402C
:104FB00000F042B800F068F800210546FFF746FE11
:104FC0002389E9691A1D44F82210EFF3108272B6A2
:104FD000A2890132A28162B6E28901339BB29A4270
:104FE000238104BF00232381012328466B7000F036
:104FF00065F929460F48BDE8704000F01DB8848966
:10500000C589AC4210D20089061D43F82610EFF383
:10501000108172B601349C8162B6013080B2854243
:1050200014BF18811A8170BD0320BDE87040FDF7E0
:105030001DBB00BF683D002030B4057842688C7805
:10504000013DEDB2F2B19378A34204D20FE098781B
:1050500084420ED81A465368002BF8D10023022D43
:105060004B60516000D900228A6030BC7047134603
:105070000246022D4B60516098BF9960F3D88A6058
:1050800030BC70470246E9E702784368013A596844
:105090004160022A07D811B1002288605A600022BC
:1050A0009A601846704700225A601846704700BF41
:1050B000034B5A684260002258608260704700BF0C
:1050C000683D0020816830B4002931D00B780A4651
:1050D0001BB992681378002BFBD043684B60436880
:1050E00003B19960157851688478013DEDB20029CB
:1050F0002ED08B78A34204D20FE09A7894420ED837
:1051000019464B68002BF8D10023022D43604860FC
:105110000BD90023836030BC70470B461146022D2B
:105120004360486098BF9860F3D8816030BC704796
:105130004378012BEFD1074B5A68904204D01346B5
:10514000002AF9D1034ACDE742685A60014AC9E70B
:105150001146D9E7683D002030B4164CE2681AB316
:10516000A38A994203D822E0D4689CB12246948A4B
:1051700023449942F8D8D568C560D060C4680261FC
:1051800004B120615B1A9BB28382918ACB1A93820D
:1051900030BC70479BB2CB1A0021C16030BCD060DC
:1051A000026193828182704713462246F3E71546D7
:1051B0002246E1E7803D00202DE9F041314EF068C4
:1051C000002856D0B58A013DADB2B582002D50D130
:1051D000DFF8B8E02C4B9EF80070B3F80080013F78
:1051E000FFB24FF0010C826832B1436853604368EC
:1051F0000BB19A6045608560DEF804208478002A4F
:1052000039D09378A34204D21BE099788C421AD803
:105210001A465368002BF8D1022F4560506000D920
:10522000002243788260042B828A17D0C36880F8FA
:1052300001C0DBB11E611349C5600561EAB91846BA
:10524000D1E71346114A4360022F506098BF98601F
:10525000E6D843788260042B828AE7D1C38A80F83B
:1052600001C043448382C368002BE3D1B282F36060
:105270000361BDE8F081054ACEE78A82CB60BDE8D4
:10528000F08100BF803D0020643D0020683D00208B
:1052900083682BB142685A60426842B1936070479C
:1052A000054B5A68904203D01346002AF9D1704743
:1052B00042685A60704700BF683D0020036973B1BF
:1052C000C268DA60C16859B130B4828A9D8A00240C
:1052D0002A449A820B61C46030BC0023036170478A
:1052E000998200230361704730B40F4BDC78EFF3F1
:1052F000108272B69A78944208D9551C1A789D701B
:10530000551CAC4214BFEDB200251D7062B694422C
:1053100005D903EBC20330BC586099607047022086
:1053200030BCFDF7A3B900BFD039002038B5114B10
:105330006AB11A68138B30EA030413D006250C46B1
:1053400050832946204600F077F9012038BD1A68BD
:10535000138B10EA03040AD023EA0000108354835D
:10536000022038BD23EA00001083022038BD052545
:10537000E5E700BF9C3D00200139144B10B553F800
:10538000214044B1238B6278618B1843062A208325
:1053900018D0052A00D010BD10EA0103FBD06383AA
:1053A00020EA010020832046FFF788FF01232046E2
:1053B0006370628B0821FFF753FC2046BDE8104064
:1053C00000F0FCB831EA0003EAD010BD543A0020E6
:1053D0000139044B53F821301BB11A8B22EA00002B
:1053E00018837047543A002008B50139064B53F82A
:1053F00021303BB101461846FFF776FFBDE8084073
:1054000000F02CB808BD00BF543A002038B5038B1B
:105410004278458B1943062A018319D0052A00D00A
:1054200038BD11EA0503FBD0438321EA0501044698
:105430000183FFF743FF012320466370628B08213D
:10544000FFF70EFC21460448BDE83840FFF7F4BDE5
:1054500035EA0103E9D038BD683D0020054B1A78D4
:1054600012B101229A707047034B4FF080521A60BC
:10547000704700BFD40B002004ED00E038B51A4B94
:105480001A4D186801234370FFF712FEAB786C7851
:1054900093B921E0012A1AD0FFF7D4FCEB7801344C
:1054A0009C4208BF0024EFF3108372B6AB78013B37
:1054B000DBB2AB7062B67BB105EBC4014B681A7806
:1054C0001846002AE6D10989FFF7A0FFE6E78968B8
:1054D0001846FFF73FFDE1E705486C70FFF7D4FD84
:1054E000BDE8384000F058B89C3D0020D03900207D
:1054F000683D00200A4A0B490B480C4B10B4146855
:105500000C600B4A002407210460196013685DF8E1
:10551000044B43F07F434FF0FF301360704700BFF0
:105520009C97000014E000E018E000E010E000E0CC
:1055300020ED00E0704700BF08B50B4B1868012351
:105540004370FFF7B5FDFDF7A8F8084A136801336B
:105550001360FFF731FEFFF733F90548FFF794FDBD
:10556000BDE8084000F018B89C3D0020643D0020D4
:10557000683D0020064B1B68DA6A9B6A9A4203D892
:105580001268044B9A4202D00120FDF76FB87047B1
:105590009C3D0020A52E5AE2064A074B127858601F
:1055A000022141702AB11B68984202D0C078FFF7EF
:1055B00099BB7047603D00209C3D002038B508B382
:1055C0001A4D82780446286883789A420BD9FFF7EF
:1055D0006FFD174A2B6812780120022158706C6009
:1055E000617042B938BD0123637021461148BDE89E
:1055F0003840FFF721BD9C42F4D0E078BDE8384048
:10560000FFF770BB0B48FFF73FFD094A074B1278C5
:10561000586002214170002AE4D01B688342E1D027
:10562000C078BDE83840FFF75DBB00BF9C3D00205F
:10563000603D0020683D0020F8B138B54FF6FF739B
:1056400098420C460D4D03D001462868FFF784FDB3
:105650002B680B485C70FFF717FD0A4B68601B78DE
:1056600006490222427003B938BD0B689842FBD04C
:10567000C078BDE83840FFF735BB70479C3D00203F
:10568000683D0020603D0020024B186800B1C078E2
:10569000704700BF9C3D002070B558B9374D2B684E
:1056A000997083F82410364C626892788A4236D812
:1056B000002070BD334B1B88984201D9FF2070BD7C
:1056C0000138314B53F82040002CF7D02B4DA170FE
:1056D0002B6884F824109C42E5D02046FFF7F2FCAA
:1056E0006678012EE4D12648FFF7CEFC0446002858
:1056F00036D02868A27883789A422AD9FFF7D8FC56
:10570000224A2B6812785E7002216C606170002A58
:10571000CED09C42CCD0E078FFF7E4FAC8E7194637
:105720002046FFF789FC2B68144E01225A70204650
:10573000FFF7AAFC154B68601B7802224270002B11
:10574000B6D033688342B3D0C078FFF7CBFA0020DD
:1057500070BD667021460A48FFF76EFC002070BDE0
:105760000748FFF791FC094B68601B7802224270E2
:10577000002B9DD02B689842E6D199E79C3D0020F4
:10578000683D002094970000543A0020603D0020BE
:105790002DE9F04111F0FF0F0C46064639489046BE
:1057A0001F4608BF0134FFF72BFB054600282ED00B
:1057B0000020C4F30F210123E4B2C5F82C80EF616F
:1057C000E984AC7085F8244028706860A860E860BF
:1057D00028612862A882E8822883688385F82500EA
:1057E0006B70B9B128463146FFF7DEF9264B1888B1
:1057F00068B1264E3368002B41D03246012303E0C6
:1058000052F8041F59B123465C1C8442F8D9002089
:10581000BDE8F0811E48FFF7F3FAE862E2E7E2B282
:105820001C4F46F823503B78EA701BBB1A4EAA78EF
:10583000306883789A420CD9FFF73AFC33683A789B
:10584000012002215870756069705AB92046BDE880
:10585000F08101236B7029461048FFF7EDFB2046CD
:10586000BDE8F0819D42F1D0E878FFF73BFA204691
:10587000BDE8F08101212846FFF71EFAD6E7012294
:105880001446CDE7D80B002094970000543A00202E
:10589000800C0020603D00209C3D0020683D0020E1
:1058A0002DE9F047684F3C6848B1E378984206D04C
:1058B000664B1B88984259D9FF20BDE8F08700232A
:1058C0006370FAF724FEA062FFF754FE3B681C6A7F
:1058D000E4B1012663682046002B3FD0FFF7D4FBDC
:1058E00000210546FFF7B2F92846FFF7E7FC6E7086
:1058F00029465748FFF7A0FBE3682A6AE260A560E3
:1059000066802C621C46002CE4D13B68DA78514951
:10591000514D52484C4E013A002441F82240D96A78
:10592000FFF77CFA3B682A78DC6222B118462146F0
:10593000FFF7C2F933684A48434E1946FFF76EFA3B
:10594000002443483C60FFF79FFB2B7878600222DD
:105950004270002B61D10020BDE8F087E2686380CF
:10596000A360E3601446002CB4D1CEE7461EDFF8F6
:10597000E4A05AF82690B9F1000F9DD04846FFF7F1
:1059800087FC4846FFF79AFCD9F820404FF0010801
:10599000E4B163682046002B48D0FFF775FB002177
:1059A0000546FFF753F92846FFF788FC85F8018084
:1059B00029462748FFF740FBE3682A6AE260A560B2
:1059C000A4F802802C621C46002CE2D100244AF884
:1059D0002640214DD9F82C102048FFF71FFA2B78CC
:1059E000C9F82C4053BB1A4C1D48174E4946FFF7C7
:1059F00015FA396862688B7892789A42ABD901239C
:105A00004B702046FFF718FB2046FFF73DFB2B7835
:105A1000706002224270002B9DD0336883429AD07E
:105A2000C078FFF75FF90020BDE8F087E268638087
:105A3000A360E3601446002CABD1C7E7214648467B
:105A4000FFF73AF9CFE700BF9C3D00209497000094
:105A5000683D0020543A0020603D0020800C00206A
:105A6000D80B0020F8B5FFF70DF9294B1A8822B1A1
:105A700092000021274801F07FFC274B2748198816
:105A8000274D284E3422FFF78FF9274A274B1288DB
:105A90001968274842F00042FFF786F9254B264A4D
:105AA000186811880822FFF77FF90024FF220123DC
:105AB0001F48EA706B70EC842C70AC7085F8244041
:105AC0006C60AC60EC602C612C62AC82EC822C834C
:105AD0006C8385F82540FFF793F91849E86228465A
:105AE000FFF762F81649174B174A18480D603678C9
:105AF000022704216F70D6701470547001701970F1
:105B00004460DC601C619C82BDE8F840FCF7C4BDC9
:105B100094970000543A0020A8970000D80B00206A
:105B2000A43D0020B497000098970000AC970000B7
:105B3000800C0020883A0020D097000067260000E3
:105B40009C3D0020803D0020D0390020683D002091
:105B500008B51E4B1A6842F47F021A601B681B02CC
:105B600003F07F43DB43B3FA83F3194A1948126801
:105B7000DBB2C3F10803C2F30222934298BF531C65
:105B80006FF08071026801FA03F322F07F4203F0A4
:105B90007F4313430360FFF7ADFC0F4B00281860F1
:105BA00012DB00F1604000F56440FF2202701A68C9
:105BB00053099B0003F1604303F5614302F01F02A8
:105BC000012101FA02F21A6008BD00BF20ED00E0D9
:105BD0000CED00E01CED00E0983D0020F7B50E4B09
:105BE0000E4F01244FF085451C6000268DF80040C3
:105BF0008DF8014000992E60384600F08DFB8DF83D
:105C000005408DF804600199384600F067FBAE61ED
:105C10002C6003B0F0BD00BF0007904200000440BC
:105C200010B5044628B90A4B0A4A0B48CC2101F0AA
:105C300063F84378FF2B09D000F00AFA6378013348
:105C4000DBB2637000F0FAF9002010BD0120FCE720
:105C50001498000069980000199800000A4B00226F
:105C60009A6403F140029A6303F130029A6203F1ED
:105C700020029A6103F110029A60044A1360044BF7
:105C8000C3E90233704700BF9C3C0020983C0020D1
:105C9000EC3C002008B5FFF7E1FFFFF79FFF002075
:105CA00008BD0000094B1A7802F03F0242F0800262
:105CB0001A709A79C2F38102022AFAD1044B0022A7
:105CC0001A76044A1378002BFCD170470040064036
:105CD000A000C842D400C8422DE9F0410446467AEB
:105CE000414886B0884600F066FC2388042B32D1F8
:105CF000802801D1FFF7D6FF05A863792279E179E1
:105D0000CDE90080384800F08FFC384B01221A7131
:105D1000374BA2781A71E2781A70A37873B123799D
:105D2000012B03D16179304800F089FB2F4B227998
